{
	"contracts/LiquidityPool.sol": {
		"SimpleLiquidityPool": {
			"abi": [
				{
					"inputs": [
						{
							"internalType": "address",
							"name": "_tokenAddress",
							"type": "address"
						}
					],
					"stateMutability": "nonpayable",
					"type": "constructor"
				},
				{
					"inputs": [
						{
							"internalType": "uint256",
							"name": "_amount",
							"type": "uint256"
						}
					],
					"name": "addLiquidity",
					"outputs": [],
					"stateMutability": "nonpayable",
					"type": "function"
				},
				{
					"inputs": [],
					"name": "emergencyWithdraw",
					"outputs": [],
					"stateMutability": "nonpayable",
					"type": "function"
				},
				{
					"inputs": [
						{
							"internalType": "address",
							"name": "",
							"type": "address"
						}
					],
					"name": "liquidityProviders",
					"outputs": [
						{
							"internalType": "uint256",
							"name": "",
							"type": "uint256"
						}
					],
					"stateMutability": "view",
					"type": "function"
				},
				{
					"inputs": [],
					"name": "owner",
					"outputs": [
						{
							"internalType": "address",
							"name": "",
							"type": "address"
						}
					],
					"stateMutability": "view",
					"type": "function"
				},
				{
					"inputs": [],
					"name": "token",
					"outputs": [
						{
							"internalType": "contract IERC20",
							"name": "",
							"type": "address"
						}
					],
					"stateMutability": "view",
					"type": "function"
				},
				{
					"inputs": [],
					"name": "totalLiquidity",
					"outputs": [
						{
							"internalType": "uint256",
							"name": "",
							"type": "uint256"
						}
					],
					"stateMutability": "view",
					"type": "function"
				},
				{
					"inputs": [
						{
							"internalType": "uint256",
							"name": "_amount",
							"type": "uint256"
						}
					],
					"name": "withdrawLiquidity",
					"outputs": [],
					"stateMutability": "nonpayable",
					"type": "function"
				}
			],
			"devdoc": {
				"kind": "dev",
				"methods": {},
				"version": 1
			},
			"evm": {
				"assembly": "    /* \"contracts/LiquidityPool.sol\":120:1519  contract SimpleLiquidityPool {... */\n  mstore(0x40, 0x80)\n    /* \"contracts/LiquidityPool.sol\":310:422  constructor(address _tokenAddress) {... */\n  callvalue\n  dup1\n  iszero\n  tag_1\n  jumpi\n  0x00\n  dup1\n  revert\ntag_1:\n  pop\n  mload(0x40)\n  sub(codesize, bytecodeSize)\n  dup1\n  bytecodeSize\n  dup4\n  codecopy\n  dup2\n  dup2\n  add\n  0x40\n  mstore\n  dup2\n  add\n  swap1\n  tag_2\n  swap2\n  swap1\n  tag_3\n  jump\t// in\ntag_2:\n    /* \"contracts/LiquidityPool.sol\":364:374  msg.sender */\n  caller\n    /* \"contracts/LiquidityPool.sol\":356:361  owner */\n  0x00\n  dup1\n    /* \"contracts/LiquidityPool.sol\":356:374  owner = msg.sender */\n  0x0100\n  exp\n  dup2\n  sload\n  dup2\n  0xffffffffffffffffffffffffffffffffffffffff\n  mul\n  not\n  and\n  swap1\n  dup4\n  0xffffffffffffffffffffffffffffffffffffffff\n  and\n  mul\n  or\n  swap1\n  sstore\n  pop\n    /* \"contracts/LiquidityPool.sol\":400:413  _tokenAddress */\n  dup1\n    /* \"contracts/LiquidityPool.sol\":385:390  token */\n  0x02\n  0x00\n    /* \"contracts/LiquidityPool.sol\":385:414  token = IERC20(_tokenAddress) */\n  0x0100\n  exp\n  dup2\n  sload\n  dup2\n  0xffffffffffffffffffffffffffffffffffffffff\n  mul\n  not\n  and\n  swap1\n  dup4\n  0xffffffffffffffffffffffffffffffffffffffff\n  and\n  mul\n  or\n  swap1\n  sstore\n  pop\n    /* \"contracts/LiquidityPool.sol\":310:422  constructor(address _tokenAddress) {... */\n  pop\n    /* \"contracts/LiquidityPool.sol\":120:1519  contract SimpleLiquidityPool {... */\n  jump(tag_6)\n    /* \"#utility.yul\":88:205   */\ntag_8:\n    /* \"#utility.yul\":197:198   */\n  0x00\n    /* \"#utility.yul\":194:195   */\n  dup1\n    /* \"#utility.yul\":187:199   */\n  revert\n    /* \"#utility.yul\":334:460   */\ntag_10:\n    /* \"#utility.yul\":371:378   */\n  0x00\n    /* \"#utility.yul\":411:453   */\n  0xffffffffffffffffffffffffffffffffffffffff\n    /* \"#utility.yul\":404:409   */\n  dup3\n    /* \"#utility.yul\":400:454   */\n  and\n    /* \"#utility.yul\":389:454   */\n  swap1\n  pop\n    /* \"#utility.yul\":334:460   */\n  swap2\n  swap1\n  pop\n  jump\t// out\n    /* \"#utility.yul\":466:562   */\ntag_11:\n    /* \"#utility.yul\":503:510   */\n  0x00\n    /* \"#utility.yul\":532:556   */\n  tag_20\n    /* \"#utility.yul\":550:555   */\n  dup3\n    /* \"#utility.yul\":532:556   */\n  tag_10\n  jump\t// in\ntag_20:\n    /* \"#utility.yul\":521:556   */\n  swap1\n  pop\n    /* \"#utility.yul\":466:562   */\n  swap2\n  swap1\n  pop\n  jump\t// out\n    /* \"#utility.yul\":568:690   */\ntag_12:\n    /* \"#utility.yul\":641:665   */\n  tag_22\n    /* \"#utility.yul\":659:664   */\n  dup2\n    /* \"#utility.yul\":641:665   */\n  tag_11\n  jump\t// in\ntag_22:\n    /* \"#utility.yul\":634:639   */\n  dup2\n    /* \"#utility.yul\":631:666   */\n  eq\n    /* \"#utility.yul\":621:684   */\n  tag_23\n  jumpi\n    /* \"#utility.yul\":680:681   */\n  0x00\n    /* \"#utility.yul\":677:678   */\n  dup1\n    /* \"#utility.yul\":670:682   */\n  revert\n    /* \"#utility.yul\":621:684   */\ntag_23:\n    /* \"#utility.yul\":568:690   */\n  pop\n  jump\t// out\n    /* \"#utility.yul\":696:839   */\ntag_13:\n    /* \"#utility.yul\":753:758   */\n  0x00\n    /* \"#utility.yul\":784:790   */\n  dup2\n    /* \"#utility.yul\":778:791   */\n  mload\n    /* \"#utility.yul\":769:791   */\n  swap1\n  pop\n    /* \"#utility.yul\":800:833   */\n  tag_25\n    /* \"#utility.yul\":827:832   */\n  dup2\n    /* \"#utility.yul\":800:833   */\n  tag_12\n  jump\t// in\ntag_25:\n    /* \"#utility.yul\":696:839   */\n  swap3\n  swap2\n  pop\n  pop\n  jump\t// out\n    /* \"#utility.yul\":845:1196   */\ntag_3:\n    /* \"#utility.yul\":915:921   */\n  0x00\n    /* \"#utility.yul\":964:966   */\n  0x20\n    /* \"#utility.yul\":952:961   */\n  dup3\n    /* \"#utility.yul\":943:950   */\n  dup5\n    /* \"#utility.yul\":939:962   */\n  sub\n    /* \"#utility.yul\":935:967   */\n  slt\n    /* \"#utility.yul\":932:1051   */\n  iszero\n  tag_27\n  jumpi\n    /* \"#utility.yul\":970:1049   */\n  tag_28\n  tag_8\n  jump\t// in\ntag_28:\n    /* \"#utility.yul\":932:1051   */\ntag_27:\n    /* \"#utility.yul\":1090:1091   */\n  0x00\n    /* \"#utility.yul\":1115:1179   */\n  tag_29\n    /* \"#utility.yul\":1171:1178   */\n  dup5\n    /* \"#utility.yul\":1162:1168   */\n  dup3\n    /* \"#utility.yul\":1151:1160   */\n  dup6\n    /* \"#utility.yul\":1147:1169   */\n  add\n    /* \"#utility.yul\":1115:1179   */\n  tag_13\n  jump\t// in\ntag_29:\n    /* \"#utility.yul\":1105:1179   */\n  swap2\n  pop\n    /* \"#utility.yul\":1061:1189   */\n  pop\n    /* \"#utility.yul\":845:1196   */\n  swap3\n  swap2\n  pop\n  pop\n  jump\t// out\n    /* \"contracts/LiquidityPool.sol\":120:1519  contract SimpleLiquidityPool {... */\ntag_6:\n  dataSize(sub_0)\n  dup1\n  dataOffset(sub_0)\n  0x00\n  codecopy\n  0x00\n  return\nstop\n\nsub_0: assembly {\n        /* \"contracts/LiquidityPool.sol\":120:1519  contract SimpleLiquidityPool {... */\n      mstore(0x40, 0x80)\n      callvalue\n      dup1\n      iszero\n      tag_1\n      jumpi\n      0x00\n      dup1\n      revert\n    tag_1:\n      pop\n      jumpi(tag_2, lt(calldatasize, 0x04))\n      shr(0xe0, calldataload(0x00))\n      dup1\n      0x8da5cb5b\n      gt\n      tag_10\n      jumpi\n      dup1\n      0x8da5cb5b\n      eq\n      tag_6\n      jumpi\n      dup1\n      0xdb2e21bc\n      eq\n      tag_7\n      jumpi\n      dup1\n      0xdbd94267\n      eq\n      tag_8\n      jumpi\n      dup1\n      0xfc0c546a\n      eq\n      tag_9\n      jumpi\n      jump(tag_2)\n    tag_10:\n      dup1\n      0x0a861f2a\n      eq\n      tag_3\n      jumpi\n      dup1\n      0x15770f92\n      eq\n      tag_4\n      jumpi\n      dup1\n      0x51c6590a\n      eq\n      tag_5\n      jumpi\n    tag_2:\n      0x00\n      dup1\n      revert\n        /* \"contracts/LiquidityPool.sol\":759:1182  function withdrawLiquidity(uint256 _amount) external {... */\n    tag_3:\n      tag_11\n      0x04\n      dup1\n      calldatasize\n      sub\n      dup2\n      add\n      swap1\n      tag_12\n      swap2\n      swap1\n      tag_13\n      jump\t// in\n    tag_12:\n      tag_14\n      jump\t// in\n    tag_11:\n      stop\n        /* \"contracts/LiquidityPool.sol\":183:212  uint256 public totalLiquidity */\n    tag_4:\n      tag_15\n      tag_16\n      jump\t// in\n    tag_15:\n      mload(0x40)\n      tag_17\n      swap2\n      swap1\n      tag_18\n      jump\t// in\n    tag_17:\n      mload(0x40)\n      dup1\n      swap2\n      sub\n      swap1\n      return\n        /* \"contracts/LiquidityPool.sol\":430:749  function addLiquidity(uint256 _amount) external {... */\n    tag_5:\n      tag_19\n      0x04\n      dup1\n      calldatasize\n      sub\n      dup2\n      add\n      swap1\n      tag_20\n      swap2\n      swap1\n      tag_13\n      jump\t// in\n    tag_20:\n      tag_21\n      jump\t// in\n    tag_19:\n      stop\n        /* \"contracts/LiquidityPool.sol\":156:176  address public owner */\n    tag_6:\n      tag_22\n      tag_23\n      jump\t// in\n    tag_22:\n      mload(0x40)\n      tag_24\n      swap2\n      swap1\n      tag_25\n      jump\t// in\n    tag_24:\n      mload(0x40)\n      dup1\n      swap2\n      sub\n      swap1\n      return\n        /* \"contracts/LiquidityPool.sol\":1190:1516  function emergencyWithdraw() external {   ... */\n    tag_7:\n      tag_26\n      tag_27\n      jump\t// in\n    tag_26:\n      stop\n        /* \"contracts/LiquidityPool.sol\":248:301  mapping(address => uint256) public liquidityProviders */\n    tag_8:\n      tag_28\n      0x04\n      dup1\n      calldatasize\n      sub\n      dup2\n      add\n      swap1\n      tag_29\n      swap2\n      swap1\n      tag_30\n      jump\t// in\n    tag_29:\n      tag_31\n      jump\t// in\n    tag_28:\n      mload(0x40)\n      tag_32\n      swap2\n      swap1\n      tag_18\n      jump\t// in\n    tag_32:\n      mload(0x40)\n      dup1\n      swap2\n      sub\n      swap1\n      return\n        /* \"contracts/LiquidityPool.sol\":219:238  IERC20 public token */\n    tag_9:\n      tag_33\n      tag_34\n      jump\t// in\n    tag_33:\n      mload(0x40)\n      tag_35\n      swap2\n      swap1\n      tag_36\n      jump\t// in\n    tag_35:\n      mload(0x40)\n      dup1\n      swap2\n      sub\n      swap1\n      return\n        /* \"contracts/LiquidityPool.sol\":759:1182  function withdrawLiquidity(uint256 _amount) external {... */\n    tag_14:\n        /* \"contracts/LiquidityPool.sol\":841:842  0 */\n      0x00\n        /* \"contracts/LiquidityPool.sol\":831:838  _amount */\n      dup2\n        /* \"contracts/LiquidityPool.sol\":831:842  _amount > 0 */\n      gt\n        /* \"contracts/LiquidityPool.sol\":823:876  require(_amount > 0, \"Amount must be greater than 0\") */\n      tag_38\n      jumpi\n      mload(0x40)\n      0x08c379a000000000000000000000000000000000000000000000000000000000\n      dup2\n      mstore\n      0x04\n      add\n      tag_39\n      swap1\n      tag_40\n      jump\t// in\n    tag_39:\n      mload(0x40)\n      dup1\n      swap2\n      sub\n      swap1\n      revert\n    tag_38:\n        /* \"contracts/LiquidityPool.sol\":906:924  liquidityProviders */\n      0x03\n        /* \"contracts/LiquidityPool.sol\":906:936  liquidityProviders[msg.sender] */\n      0x00\n        /* \"contracts/LiquidityPool.sol\":925:935  msg.sender */\n      caller\n        /* \"contracts/LiquidityPool.sol\":906:936  liquidityProviders[msg.sender] */\n      0xffffffffffffffffffffffffffffffffffffffff\n      and\n      0xffffffffffffffffffffffffffffffffffffffff\n      and\n      dup2\n      mstore\n      0x20\n      add\n      swap1\n      dup2\n      mstore\n      0x20\n      add\n      0x00\n      keccak256\n      sload\n        /* \"contracts/LiquidityPool.sol\":895:902  _amount */\n      dup2\n        /* \"contracts/LiquidityPool.sol\":895:936  _amount <= liquidityProviders[msg.sender] */\n      gt\n      iszero\n        /* \"contracts/LiquidityPool.sol\":887:963  require(_amount <= liquidityProviders[msg.sender], \"Insufficient liquidity\") */\n      tag_41\n      jumpi\n      mload(0x40)\n      0x08c379a000000000000000000000000000000000000000000000000000000000\n      dup2\n      mstore\n      0x04\n      add\n      tag_42\n      swap1\n      tag_43\n      jump\t// in\n    tag_42:\n      mload(0x40)\n      dup1\n      swap2\n      sub\n      swap1\n      revert\n    tag_41:\n        /* \"contracts/LiquidityPool.sol\":1010:1017  _amount */\n      dup1\n        /* \"contracts/LiquidityPool.sol\":976:994  liquidityProviders */\n      0x03\n        /* \"contracts/LiquidityPool.sol\":976:1006  liquidityProviders[msg.sender] */\n      0x00\n        /* \"contracts/LiquidityPool.sol\":995:1005  msg.sender */\n      caller\n        /* \"contracts/LiquidityPool.sol\":976:1006  liquidityProviders[msg.sender] */\n      0xffffffffffffffffffffffffffffffffffffffff\n      and\n      0xffffffffffffffffffffffffffffffffffffffff\n      and\n      dup2\n      mstore\n      0x20\n      add\n      swap1\n      dup2\n      mstore\n      0x20\n      add\n      0x00\n      keccak256\n      0x00\n        /* \"contracts/LiquidityPool.sol\":976:1017  liquidityProviders[msg.sender] -= _amount */\n      dup3\n      dup3\n      sload\n      tag_44\n      swap2\n      swap1\n      tag_45\n      jump\t// in\n    tag_44:\n      swap3\n      pop\n      pop\n      dup2\n      swap1\n      sstore\n      pop\n        /* \"contracts/LiquidityPool.sol\":1046:1053  _amount */\n      dup1\n        /* \"contracts/LiquidityPool.sol\":1028:1042  totalLiquidity */\n      0x01\n      0x00\n        /* \"contracts/LiquidityPool.sol\":1028:1053  totalLiquidity -= _amount */\n      dup3\n      dup3\n      sload\n      tag_46\n      swap2\n      swap1\n      tag_45\n      jump\t// in\n    tag_46:\n      swap3\n      pop\n      pop\n      dup2\n      swap1\n      sstore\n      pop\n        /* \"contracts/LiquidityPool.sol\":1089:1090  0 */\n      0x00\n        /* \"contracts/LiquidityPool.sol\":1071:1085  totalLiquidity */\n      sload(0x01)\n        /* \"contracts/LiquidityPool.sol\":1071:1090  totalLiquidity >= 0 */\n      lt\n      iszero\n        /* \"contracts/LiquidityPool.sol\":1064:1091  assert(totalLiquidity >= 0) */\n      tag_47\n      jumpi\n      tag_48\n      tag_49\n      jump\t// in\n    tag_48:\n    tag_47:\n        /* \"contracts/LiquidityPool.sol\":1113:1118  token */\n      0x02\n      0x00\n      swap1\n      sload\n      swap1\n      0x0100\n      exp\n      swap1\n      div\n      0xffffffffffffffffffffffffffffffffffffffff\n      and\n        /* \"contracts/LiquidityPool.sol\":1113:1127  token.transfer */\n      0xffffffffffffffffffffffffffffffffffffffff\n      and\n      0xa9059cbb\n        /* \"contracts/LiquidityPool.sol\":1128:1138  msg.sender */\n      caller\n        /* \"contracts/LiquidityPool.sol\":1140:1147  _amount */\n      dup4\n        /* \"contracts/LiquidityPool.sol\":1113:1148  token.transfer(msg.sender, _amount) */\n      mload(0x40)\n      dup4\n      0xffffffff\n      and\n      0xe0\n      shl\n      dup2\n      mstore\n      0x04\n      add\n      tag_50\n      swap3\n      swap2\n      swap1\n      tag_51\n      jump\t// in\n    tag_50:\n      0x20\n      mload(0x40)\n      dup1\n      dup4\n      sub\n      dup2\n      0x00\n      dup8\n      gas\n      call\n      iszero\n      dup1\n      iszero\n      tag_53\n      jumpi\n      returndatasize\n      0x00\n      dup1\n      returndatacopy\n      revert(0x00, returndatasize)\n    tag_53:\n      pop\n      pop\n      pop\n      pop\n      mload(0x40)\n      returndatasize\n      not(0x1f)\n      0x1f\n      dup3\n      add\n      and\n      dup3\n      add\n      dup1\n      0x40\n      mstore\n      pop\n      dup2\n      add\n      swap1\n      tag_54\n      swap2\n      swap1\n      tag_55\n      jump\t// in\n    tag_54:\n        /* \"contracts/LiquidityPool.sol\":1105:1174  require(token.transfer(msg.sender, _amount), \"Token transfer failed\") */\n      tag_56\n      jumpi\n      mload(0x40)\n      0x08c379a000000000000000000000000000000000000000000000000000000000\n      dup2\n      mstore\n      0x04\n      add\n      tag_57\n      swap1\n      tag_58\n      jump\t// in\n    tag_57:\n      mload(0x40)\n      dup1\n      swap2\n      sub\n      swap1\n      revert\n    tag_56:\n        /* \"contracts/LiquidityPool.sol\":759:1182  function withdrawLiquidity(uint256 _amount) external {... */\n      pop\n      jump\t// out\n        /* \"contracts/LiquidityPool.sol\":183:212  uint256 public totalLiquidity */\n    tag_16:\n      sload(0x01)\n      dup2\n      jump\t// out\n        /* \"contracts/LiquidityPool.sol\":430:749  function addLiquidity(uint256 _amount) external {... */\n    tag_21:\n        /* \"contracts/LiquidityPool.sol\":513:514  0 */\n      0x00\n        /* \"contracts/LiquidityPool.sol\":503:510  _amount */\n      dup2\n        /* \"contracts/LiquidityPool.sol\":503:514  _amount > 0 */\n      gt\n        /* \"contracts/LiquidityPool.sol\":495:551  require(_amount > 0, \"Liquidity must be greater than 0\") */\n      tag_60\n      jumpi\n      mload(0x40)\n      0x08c379a000000000000000000000000000000000000000000000000000000000\n      dup2\n      mstore\n      0x04\n      add\n      tag_61\n      swap1\n      tag_62\n      jump\t// in\n    tag_61:\n      mload(0x40)\n      dup1\n      swap2\n      sub\n      swap1\n      revert\n    tag_60:\n        /* \"contracts/LiquidityPool.sol\":571:576  token */\n      0x02\n      0x00\n      swap1\n      sload\n      swap1\n      0x0100\n      exp\n      swap1\n      div\n      0xffffffffffffffffffffffffffffffffffffffff\n      and\n        /* \"contracts/LiquidityPool.sol\":571:589  token.transferFrom */\n      0xffffffffffffffffffffffffffffffffffffffff\n      and\n      0x23b872dd\n        /* \"contracts/LiquidityPool.sol\":590:600  msg.sender */\n      caller\n        /* \"contracts/LiquidityPool.sol\":610:614  this */\n      address\n        /* \"contracts/LiquidityPool.sol\":617:624  _amount */\n      dup5\n        /* \"contracts/LiquidityPool.sol\":571:625  token.transferFrom(msg.sender, address(this), _amount) */\n      mload(0x40)\n      dup5\n      0xffffffff\n      and\n      0xe0\n      shl\n      dup2\n      mstore\n      0x04\n      add\n      tag_63\n      swap4\n      swap3\n      swap2\n      swap1\n      tag_64\n      jump\t// in\n    tag_63:\n      0x20\n      mload(0x40)\n      dup1\n      dup4\n      sub\n      dup2\n      0x00\n      dup8\n      gas\n      call\n      iszero\n      dup1\n      iszero\n      tag_66\n      jumpi\n      returndatasize\n      0x00\n      dup1\n      returndatacopy\n      revert(0x00, returndatasize)\n    tag_66:\n      pop\n      pop\n      pop\n      pop\n      mload(0x40)\n      returndatasize\n      not(0x1f)\n      0x1f\n      dup3\n      add\n      and\n      dup3\n      add\n      dup1\n      0x40\n      mstore\n      pop\n      dup2\n      add\n      swap1\n      tag_67\n      swap2\n      swap1\n      tag_55\n      jump\t// in\n    tag_67:\n        /* \"contracts/LiquidityPool.sol\":563:651  require(token.transferFrom(msg.sender, address(this), _amount), \"Token transfer failed\") */\n      tag_68\n      jumpi\n      mload(0x40)\n      0x08c379a000000000000000000000000000000000000000000000000000000000\n      dup2\n      mstore\n      0x04\n      add\n      tag_69\n      swap1\n      tag_58\n      jump\t// in\n    tag_69:\n      mload(0x40)\n      dup1\n      swap2\n      sub\n      swap1\n      revert\n    tag_68:\n        /* \"contracts/LiquidityPool.sol\":698:705  _amount */\n      dup1\n        /* \"contracts/LiquidityPool.sol\":664:682  liquidityProviders */\n      0x03\n        /* \"contracts/LiquidityPool.sol\":664:694  liquidityProviders[msg.sender] */\n      0x00\n        /* \"contracts/LiquidityPool.sol\":683:693  msg.sender */\n      caller\n        /* \"contracts/LiquidityPool.sol\":664:694  liquidityProviders[msg.sender] */\n      0xffffffffffffffffffffffffffffffffffffffff\n      and\n      0xffffffffffffffffffffffffffffffffffffffff\n      and\n      dup2\n      mstore\n      0x20\n      add\n      swap1\n      dup2\n      mstore\n      0x20\n      add\n      0x00\n      keccak256\n      0x00\n        /* \"contracts/LiquidityPool.sol\":664:705  liquidityProviders[msg.sender] += _amount */\n      dup3\n      dup3\n      sload\n      tag_70\n      swap2\n      swap1\n      tag_71\n      jump\t// in\n    tag_70:\n      swap3\n      pop\n      pop\n      dup2\n      swap1\n      sstore\n      pop\n        /* \"contracts/LiquidityPool.sol\":734:741  _amount */\n      dup1\n        /* \"contracts/LiquidityPool.sol\":716:730  totalLiquidity */\n      0x01\n      0x00\n        /* \"contracts/LiquidityPool.sol\":716:741  totalLiquidity += _amount */\n      dup3\n      dup3\n      sload\n      tag_72\n      swap2\n      swap1\n      tag_71\n      jump\t// in\n    tag_72:\n      swap3\n      pop\n      pop\n      dup2\n      swap1\n      sstore\n      pop\n        /* \"contracts/LiquidityPool.sol\":430:749  function addLiquidity(uint256 _amount) external {... */\n      pop\n      jump\t// out\n        /* \"contracts/LiquidityPool.sol\":156:176  address public owner */\n    tag_23:\n      0x00\n      dup1\n      sload\n      swap1\n      0x0100\n      exp\n      swap1\n      div\n      0xffffffffffffffffffffffffffffffffffffffff\n      and\n      dup2\n      jump\t// out\n        /* \"contracts/LiquidityPool.sol\":1190:1516  function emergencyWithdraw() external {   ... */\n    tag_27:\n        /* \"contracts/LiquidityPool.sol\":1260:1265  owner */\n      0x00\n      dup1\n      sload\n      swap1\n      0x0100\n      exp\n      swap1\n      div\n      0xffffffffffffffffffffffffffffffffffffffff\n      and\n        /* \"contracts/LiquidityPool.sol\":1246:1265  msg.sender != owner */\n      0xffffffffffffffffffffffffffffffffffffffff\n      and\n        /* \"contracts/LiquidityPool.sol\":1246:1256  msg.sender */\n      caller\n        /* \"contracts/LiquidityPool.sol\":1246:1265  msg.sender != owner */\n      0xffffffffffffffffffffffffffffffffffffffff\n      and\n      eq\n        /* \"contracts/LiquidityPool.sol\":1242:1342  if (msg.sender != owner) {... */\n      tag_74\n      jumpi\n        /* \"contracts/LiquidityPool.sol\":1282:1329  revert(\"Only the owner can call this function\") */\n      mload(0x40)\n      0x08c379a000000000000000000000000000000000000000000000000000000000\n      dup2\n      mstore\n      0x04\n      add\n      tag_75\n      swap1\n      tag_76\n      jump\t// in\n    tag_75:\n      mload(0x40)\n      dup1\n      swap2\n      sub\n      swap1\n      revert\n        /* \"contracts/LiquidityPool.sol\":1242:1342  if (msg.sender != owner) {... */\n    tag_74:\n        /* \"contracts/LiquidityPool.sol\":1356:1370  uint256 amount */\n      0x00\n        /* \"contracts/LiquidityPool.sol\":1373:1378  token */\n      0x02\n      0x00\n      swap1\n      sload\n      swap1\n      0x0100\n      exp\n      swap1\n      div\n      0xffffffffffffffffffffffffffffffffffffffff\n      and\n        /* \"contracts/LiquidityPool.sol\":1373:1388  token.balanceOf */\n      0xffffffffffffffffffffffffffffffffffffffff\n      and\n      0x70a08231\n        /* \"contracts/LiquidityPool.sol\":1397:1401  this */\n      address\n        /* \"contracts/LiquidityPool.sol\":1373:1403  token.balanceOf(address(this)) */\n      mload(0x40)\n      dup3\n      0xffffffff\n      and\n      0xe0\n      shl\n      dup2\n      mstore\n      0x04\n      add\n      tag_77\n      swap2\n      swap1\n      tag_25\n      jump\t// in\n    tag_77:\n      0x20\n      mload(0x40)\n      dup1\n      dup4\n      sub\n      dup2\n      dup7\n      gas\n      staticcall\n      iszero\n      dup1\n      iszero\n      tag_79\n      jumpi\n      returndatasize\n      0x00\n      dup1\n      returndatacopy\n      revert(0x00, returndatasize)\n    tag_79:\n      pop\n      pop\n      pop\n      pop\n      mload(0x40)\n      returndatasize\n      not(0x1f)\n      0x1f\n      dup3\n      add\n      and\n      dup3\n      add\n      dup1\n      0x40\n      mstore\n      pop\n      dup2\n      add\n      swap1\n      tag_80\n      swap2\n      swap1\n      tag_81\n      jump\t// in\n    tag_80:\n        /* \"contracts/LiquidityPool.sol\":1356:1403  uint256 amount = token.balanceOf(address(this)) */\n      swap1\n      pop\n        /* \"contracts/LiquidityPool.sol\":1431:1432  0 */\n      0x00\n        /* \"contracts/LiquidityPool.sol\":1414:1428  totalLiquidity */\n      0x01\n        /* \"contracts/LiquidityPool.sol\":1414:1432  totalLiquidity = 0 */\n      dup2\n      swap1\n      sstore\n      pop\n        /* \"contracts/LiquidityPool.sol\":1453:1458  token */\n      0x02\n      0x00\n      swap1\n      sload\n      swap1\n      0x0100\n      exp\n      swap1\n      div\n      0xffffffffffffffffffffffffffffffffffffffff\n      and\n        /* \"contracts/LiquidityPool.sol\":1453:1467  token.transfer */\n      0xffffffffffffffffffffffffffffffffffffffff\n      and\n      0xa9059cbb\n        /* \"contracts/LiquidityPool.sol\":1468:1473  owner */\n      0x00\n      dup1\n      sload\n      swap1\n      0x0100\n      exp\n      swap1\n      div\n      0xffffffffffffffffffffffffffffffffffffffff\n      and\n        /* \"contracts/LiquidityPool.sol\":1475:1481  amount */\n      dup4\n        /* \"contracts/LiquidityPool.sol\":1453:1482  token.transfer(owner, amount) */\n      mload(0x40)\n      dup4\n      0xffffffff\n      and\n      0xe0\n      shl\n      dup2\n      mstore\n      0x04\n      add\n      tag_82\n      swap3\n      swap2\n      swap1\n      tag_51\n      jump\t// in\n    tag_82:\n      0x20\n      mload(0x40)\n      dup1\n      dup4\n      sub\n      dup2\n      0x00\n      dup8\n      gas\n      call\n      iszero\n      dup1\n      iszero\n      tag_84\n      jumpi\n      returndatasize\n      0x00\n      dup1\n      returndatacopy\n      revert(0x00, returndatasize)\n    tag_84:\n      pop\n      pop\n      pop\n      pop\n      mload(0x40)\n      returndatasize\n      not(0x1f)\n      0x1f\n      dup3\n      add\n      and\n      dup3\n      add\n      dup1\n      0x40\n      mstore\n      pop\n      dup2\n      add\n      swap1\n      tag_85\n      swap2\n      swap1\n      tag_55\n      jump\t// in\n    tag_85:\n        /* \"contracts/LiquidityPool.sol\":1445:1508  require(token.transfer(owner, amount), \"Token transfer failed\") */\n      tag_86\n      jumpi\n      mload(0x40)\n      0x08c379a000000000000000000000000000000000000000000000000000000000\n      dup2\n      mstore\n      0x04\n      add\n      tag_87\n      swap1\n      tag_58\n      jump\t// in\n    tag_87:\n      mload(0x40)\n      dup1\n      swap2\n      sub\n      swap1\n      revert\n    tag_86:\n        /* \"contracts/LiquidityPool.sol\":1228:1516  {   ... */\n      pop\n        /* \"contracts/LiquidityPool.sol\":1190:1516  function emergencyWithdraw() external {   ... */\n      jump\t// out\n        /* \"contracts/LiquidityPool.sol\":248:301  mapping(address => uint256) public liquidityProviders */\n    tag_31:\n      mstore(0x20, 0x03)\n      dup1\n      0x00\n      mstore\n      keccak256(0x00, 0x40)\n      0x00\n      swap2\n      pop\n      swap1\n      pop\n      sload\n      dup2\n      jump\t// out\n        /* \"contracts/LiquidityPool.sol\":219:238  IERC20 public token */\n    tag_34:\n      0x02\n      0x00\n      swap1\n      sload\n      swap1\n      0x0100\n      exp\n      swap1\n      div\n      0xffffffffffffffffffffffffffffffffffffffff\n      and\n      dup2\n      jump\t// out\n        /* \"#utility.yul\":88:205   */\n    tag_89:\n        /* \"#utility.yul\":197:198   */\n      0x00\n        /* \"#utility.yul\":194:195   */\n      dup1\n        /* \"#utility.yul\":187:199   */\n      revert\n        /* \"#utility.yul\":334:411   */\n    tag_91:\n        /* \"#utility.yul\":371:378   */\n      0x00\n        /* \"#utility.yul\":400:405   */\n      dup2\n        /* \"#utility.yul\":389:405   */\n      swap1\n      pop\n        /* \"#utility.yul\":334:411   */\n      swap2\n      swap1\n      pop\n      jump\t// out\n        /* \"#utility.yul\":417:539   */\n    tag_92:\n        /* \"#utility.yul\":490:514   */\n      tag_127\n        /* \"#utility.yul\":508:513   */\n      dup2\n        /* \"#utility.yul\":490:514   */\n      tag_91\n      jump\t// in\n    tag_127:\n        /* \"#utility.yul\":483:488   */\n      dup2\n        /* \"#utility.yul\":480:515   */\n      eq\n        /* \"#utility.yul\":470:533   */\n      tag_128\n      jumpi\n        /* \"#utility.yul\":529:530   */\n      0x00\n        /* \"#utility.yul\":526:527   */\n      dup1\n        /* \"#utility.yul\":519:531   */\n      revert\n        /* \"#utility.yul\":470:533   */\n    tag_128:\n        /* \"#utility.yul\":417:539   */\n      pop\n      jump\t// out\n        /* \"#utility.yul\":545:684   */\n    tag_93:\n        /* \"#utility.yul\":591:596   */\n      0x00\n        /* \"#utility.yul\":629:635   */\n      dup2\n        /* \"#utility.yul\":616:636   */\n      calldataload\n        /* \"#utility.yul\":607:636   */\n      swap1\n      pop\n        /* \"#utility.yul\":645:678   */\n      tag_130\n        /* \"#utility.yul\":672:677   */\n      dup2\n        /* \"#utility.yul\":645:678   */\n      tag_92\n      jump\t// in\n    tag_130:\n        /* \"#utility.yul\":545:684   */\n      swap3\n      swap2\n      pop\n      pop\n      jump\t// out\n        /* \"#utility.yul\":690:1019   */\n    tag_13:\n        /* \"#utility.yul\":749:755   */\n      0x00\n        /* \"#utility.yul\":798:800   */\n      0x20\n        /* \"#utility.yul\":786:795   */\n      dup3\n        /* \"#utility.yul\":777:784   */\n      dup5\n        /* \"#utility.yul\":773:796   */\n      sub\n        /* \"#utility.yul\":769:801   */\n      slt\n        /* \"#utility.yul\":766:885   */\n      iszero\n      tag_132\n      jumpi\n        /* \"#utility.yul\":804:883   */\n      tag_133\n      tag_89\n      jump\t// in\n    tag_133:\n        /* \"#utility.yul\":766:885   */\n    tag_132:\n        /* \"#utility.yul\":924:925   */\n      0x00\n        /* \"#utility.yul\":949:1002   */\n      tag_134\n        /* \"#utility.yul\":994:1001   */\n      dup5\n        /* \"#utility.yul\":985:991   */\n      dup3\n        /* \"#utility.yul\":974:983   */\n      dup6\n        /* \"#utility.yul\":970:992   */\n      add\n        /* \"#utility.yul\":949:1002   */\n      tag_93\n      jump\t// in\n    tag_134:\n        /* \"#utility.yul\":939:1002   */\n      swap2\n      pop\n        /* \"#utility.yul\":895:1012   */\n      pop\n        /* \"#utility.yul\":690:1019   */\n      swap3\n      swap2\n      pop\n      pop\n      jump\t// out\n        /* \"#utility.yul\":1025:1143   */\n    tag_94:\n        /* \"#utility.yul\":1112:1136   */\n      tag_136\n        /* \"#utility.yul\":1130:1135   */\n      dup2\n        /* \"#utility.yul\":1112:1136   */\n      tag_91\n      jump\t// in\n    tag_136:\n        /* \"#utility.yul\":1107:1110   */\n      dup3\n        /* \"#utility.yul\":1100:1137   */\n      mstore\n        /* \"#utility.yul\":1025:1143   */\n      pop\n      pop\n      jump\t// out\n        /* \"#utility.yul\":1149:1371   */\n    tag_18:\n        /* \"#utility.yul\":1242:1246   */\n      0x00\n        /* \"#utility.yul\":1280:1282   */\n      0x20\n        /* \"#utility.yul\":1269:1278   */\n      dup3\n        /* \"#utility.yul\":1265:1283   */\n      add\n        /* \"#utility.yul\":1257:1283   */\n      swap1\n      pop\n        /* \"#utility.yul\":1293:1364   */\n      tag_138\n        /* \"#utility.yul\":1361:1362   */\n      0x00\n        /* \"#utility.yul\":1350:1359   */\n      dup4\n        /* \"#utility.yul\":1346:1363   */\n      add\n        /* \"#utility.yul\":1337:1343   */\n      dup5\n        /* \"#utility.yul\":1293:1364   */\n      tag_94\n      jump\t// in\n    tag_138:\n        /* \"#utility.yul\":1149:1371   */\n      swap3\n      swap2\n      pop\n      pop\n      jump\t// out\n        /* \"#utility.yul\":1377:1503   */\n    tag_95:\n        /* \"#utility.yul\":1414:1421   */\n      0x00\n        /* \"#utility.yul\":1454:1496   */\n      0xffffffffffffffffffffffffffffffffffffffff\n        /* \"#utility.yul\":1447:1452   */\n      dup3\n        /* \"#utility.yul\":1443:1497   */\n      and\n        /* \"#utility.yul\":1432:1497   */\n      swap1\n      pop\n        /* \"#utility.yul\":1377:1503   */\n      swap2\n      swap1\n      pop\n      jump\t// out\n        /* \"#utility.yul\":1509:1605   */\n    tag_96:\n        /* \"#utility.yul\":1546:1553   */\n      0x00\n        /* \"#utility.yul\":1575:1599   */\n      tag_141\n        /* \"#utility.yul\":1593:1598   */\n      dup3\n        /* \"#utility.yul\":1575:1599   */\n      tag_95\n      jump\t// in\n    tag_141:\n        /* \"#utility.yul\":1564:1599   */\n      swap1\n      pop\n        /* \"#utility.yul\":1509:1605   */\n      swap2\n      swap1\n      pop\n      jump\t// out\n        /* \"#utility.yul\":1611:1729   */\n    tag_97:\n        /* \"#utility.yul\":1698:1722   */\n      tag_143\n        /* \"#utility.yul\":1716:1721   */\n      dup2\n        /* \"#utility.yul\":1698:1722   */\n      tag_96\n      jump\t// in\n    tag_143:\n        /* \"#utility.yul\":1693:1696   */\n      dup3\n        /* \"#utility.yul\":1686:1723   */\n      mstore\n        /* \"#utility.yul\":1611:1729   */\n      pop\n      pop\n      jump\t// out\n        /* \"#utility.yul\":1735:1957   */\n    tag_25:\n        /* \"#utility.yul\":1828:1832   */\n      0x00\n        /* \"#utility.yul\":1866:1868   */\n      0x20\n        /* \"#utility.yul\":1855:1864   */\n      dup3\n        /* \"#utility.yul\":1851:1869   */\n      add\n        /* \"#utility.yul\":1843:1869   */\n      swap1\n      pop\n        /* \"#utility.yul\":1879:1950   */\n      tag_145\n        /* \"#utility.yul\":1947:1948   */\n      0x00\n        /* \"#utility.yul\":1936:1945   */\n      dup4\n        /* \"#utility.yul\":1932:1949   */\n      add\n        /* \"#utility.yul\":1923:1929   */\n      dup5\n        /* \"#utility.yul\":1879:1950   */\n      tag_97\n      jump\t// in\n    tag_145:\n        /* \"#utility.yul\":1735:1957   */\n      swap3\n      swap2\n      pop\n      pop\n      jump\t// out\n        /* \"#utility.yul\":1963:2085   */\n    tag_98:\n        /* \"#utility.yul\":2036:2060   */\n      tag_147\n        /* \"#utility.yul\":2054:2059   */\n      dup2\n        /* \"#utility.yul\":2036:2060   */\n      tag_96\n      jump\t// in\n    tag_147:\n        /* \"#utility.yul\":2029:2034   */\n      dup2\n        /* \"#utility.yul\":2026:2061   */\n      eq\n        /* \"#utility.yul\":2016:2079   */\n      tag_148\n      jumpi\n        /* \"#utility.yul\":2075:2076   */\n      0x00\n        /* \"#utility.yul\":2072:2073   */\n      dup1\n        /* \"#utility.yul\":2065:2077   */\n      revert\n        /* \"#utility.yul\":2016:2079   */\n    tag_148:\n        /* \"#utility.yul\":1963:2085   */\n      pop\n      jump\t// out\n        /* \"#utility.yul\":2091:2230   */\n    tag_99:\n        /* \"#utility.yul\":2137:2142   */\n      0x00\n        /* \"#utility.yul\":2175:2181   */\n      dup2\n        /* \"#utility.yul\":2162:2182   */\n      calldataload\n        /* \"#utility.yul\":2153:2182   */\n      swap1\n      pop\n        /* \"#utility.yul\":2191:2224   */\n      tag_150\n        /* \"#utility.yul\":2218:2223   */\n      dup2\n        /* \"#utility.yul\":2191:2224   */\n      tag_98\n      jump\t// in\n    tag_150:\n        /* \"#utility.yul\":2091:2230   */\n      swap3\n      swap2\n      pop\n      pop\n      jump\t// out\n        /* \"#utility.yul\":2236:2565   */\n    tag_30:\n        /* \"#utility.yul\":2295:2301   */\n      0x00\n        /* \"#utility.yul\":2344:2346   */\n      0x20\n        /* \"#utility.yul\":2332:2341   */\n      dup3\n        /* \"#utility.yul\":2323:2330   */\n      dup5\n        /* \"#utility.yul\":2319:2342   */\n      sub\n        /* \"#utility.yul\":2315:2347   */\n      slt\n        /* \"#utility.yul\":2312:2431   */\n      iszero\n      tag_152\n      jumpi\n        /* \"#utility.yul\":2350:2429   */\n      tag_153\n      tag_89\n      jump\t// in\n    tag_153:\n        /* \"#utility.yul\":2312:2431   */\n    tag_152:\n        /* \"#utility.yul\":2470:2471   */\n      0x00\n        /* \"#utility.yul\":2495:2548   */\n      tag_154\n        /* \"#utility.yul\":2540:2547   */\n      dup5\n        /* \"#utility.yul\":2531:2537   */\n      dup3\n        /* \"#utility.yul\":2520:2529   */\n      dup6\n        /* \"#utility.yul\":2516:2538   */\n      add\n        /* \"#utility.yul\":2495:2548   */\n      tag_99\n      jump\t// in\n    tag_154:\n        /* \"#utility.yul\":2485:2548   */\n      swap2\n      pop\n        /* \"#utility.yul\":2441:2558   */\n      pop\n        /* \"#utility.yul\":2236:2565   */\n      swap3\n      swap2\n      pop\n      pop\n      jump\t// out\n        /* \"#utility.yul\":2571:2631   */\n    tag_100:\n        /* \"#utility.yul\":2599:2602   */\n      0x00\n        /* \"#utility.yul\":2620:2625   */\n      dup2\n        /* \"#utility.yul\":2613:2625   */\n      swap1\n      pop\n        /* \"#utility.yul\":2571:2631   */\n      swap2\n      swap1\n      pop\n      jump\t// out\n        /* \"#utility.yul\":2637:2779   */\n    tag_101:\n        /* \"#utility.yul\":2687:2696   */\n      0x00\n        /* \"#utility.yul\":2720:2773   */\n      tag_157\n        /* \"#utility.yul\":2738:2772   */\n      tag_158\n        /* \"#utility.yul\":2747:2771   */\n      tag_159\n        /* \"#utility.yul\":2765:2770   */\n      dup5\n        /* \"#utility.yul\":2747:2771   */\n      tag_95\n      jump\t// in\n    tag_159:\n        /* \"#utility.yul\":2738:2772   */\n      tag_100\n      jump\t// in\n    tag_158:\n        /* \"#utility.yul\":2720:2773   */\n      tag_95\n      jump\t// in\n    tag_157:\n        /* \"#utility.yul\":2707:2773   */\n      swap1\n      pop\n        /* \"#utility.yul\":2637:2779   */\n      swap2\n      swap1\n      pop\n      jump\t// out\n        /* \"#utility.yul\":2785:2911   */\n    tag_102:\n        /* \"#utility.yul\":2835:2844   */\n      0x00\n        /* \"#utility.yul\":2868:2905   */\n      tag_161\n        /* \"#utility.yul\":2899:2904   */\n      dup3\n        /* \"#utility.yul\":2868:2905   */\n      tag_101\n      jump\t// in\n    tag_161:\n        /* \"#utility.yul\":2855:2905   */\n      swap1\n      pop\n        /* \"#utility.yul\":2785:2911   */\n      swap2\n      swap1\n      pop\n      jump\t// out\n        /* \"#utility.yul\":2917:3056   */\n    tag_103:\n        /* \"#utility.yul\":2980:2989   */\n      0x00\n        /* \"#utility.yul\":3013:3050   */\n      tag_163\n        /* \"#utility.yul\":3044:3049   */\n      dup3\n        /* \"#utility.yul\":3013:3050   */\n      tag_102\n      jump\t// in\n    tag_163:\n        /* \"#utility.yul\":3000:3050   */\n      swap1\n      pop\n        /* \"#utility.yul\":2917:3056   */\n      swap2\n      swap1\n      pop\n      jump\t// out\n        /* \"#utility.yul\":3062:3219   */\n    tag_104:\n        /* \"#utility.yul\":3162:3212   */\n      tag_165\n        /* \"#utility.yul\":3206:3211   */\n      dup2\n        /* \"#utility.yul\":3162:3212   */\n      tag_103\n      jump\t// in\n    tag_165:\n        /* \"#utility.yul\":3157:3160   */\n      dup3\n        /* \"#utility.yul\":3150:3213   */\n      mstore\n        /* \"#utility.yul\":3062:3219   */\n      pop\n      pop\n      jump\t// out\n        /* \"#utility.yul\":3225:3473   */\n    tag_36:\n        /* \"#utility.yul\":3331:3335   */\n      0x00\n        /* \"#utility.yul\":3369:3371   */\n      0x20\n        /* \"#utility.yul\":3358:3367   */\n      dup3\n        /* \"#utility.yul\":3354:3372   */\n      add\n        /* \"#utility.yul\":3346:3372   */\n      swap1\n      pop\n        /* \"#utility.yul\":3382:3466   */\n      tag_167\n        /* \"#utility.yul\":3463:3464   */\n      0x00\n        /* \"#utility.yul\":3452:3461   */\n      dup4\n        /* \"#utility.yul\":3448:3465   */\n      add\n        /* \"#utility.yul\":3439:3445   */\n      dup5\n        /* \"#utility.yul\":3382:3466   */\n      tag_104\n      jump\t// in\n    tag_167:\n        /* \"#utility.yul\":3225:3473   */\n      swap3\n      swap2\n      pop\n      pop\n      jump\t// out\n        /* \"#utility.yul\":3479:3648   */\n    tag_105:\n        /* \"#utility.yul\":3563:3574   */\n      0x00\n        /* \"#utility.yul\":3597:3603   */\n      dup3\n        /* \"#utility.yul\":3592:3595   */\n      dup3\n        /* \"#utility.yul\":3585:3604   */\n      mstore\n        /* \"#utility.yul\":3637:3641   */\n      0x20\n        /* \"#utility.yul\":3632:3635   */\n      dup3\n        /* \"#utility.yul\":3628:3642   */\n      add\n        /* \"#utility.yul\":3613:3642   */\n      swap1\n      pop\n        /* \"#utility.yul\":3479:3648   */\n      swap3\n      swap2\n      pop\n      pop\n      jump\t// out\n        /* \"#utility.yul\":3654:3833   */\n    tag_106:\n        /* \"#utility.yul\":3794:3825   */\n      0x416d6f756e74206d7573742062652067726561746572207468616e2030000000\n        /* \"#utility.yul\":3790:3791   */\n      0x00\n        /* \"#utility.yul\":3782:3788   */\n      dup3\n        /* \"#utility.yul\":3778:3792   */\n      add\n        /* \"#utility.yul\":3771:3826   */\n      mstore\n        /* \"#utility.yul\":3654:3833   */\n      pop\n      jump\t// out\n        /* \"#utility.yul\":3839:4205   */\n    tag_107:\n        /* \"#utility.yul\":3981:3984   */\n      0x00\n        /* \"#utility.yul\":4002:4069   */\n      tag_171\n        /* \"#utility.yul\":4066:4068   */\n      0x1d\n        /* \"#utility.yul\":4061:4064   */\n      dup4\n        /* \"#utility.yul\":4002:4069   */\n      tag_105\n      jump\t// in\n    tag_171:\n        /* \"#utility.yul\":3995:4069   */\n      swap2\n      pop\n        /* \"#utility.yul\":4078:4171   */\n      tag_172\n        /* \"#utility.yul\":4167:4170   */\n      dup3\n        /* \"#utility.yul\":4078:4171   */\n      tag_106\n      jump\t// in\n    tag_172:\n        /* \"#utility.yul\":4196:4198   */\n      0x20\n        /* \"#utility.yul\":4191:4194   */\n      dup3\n        /* \"#utility.yul\":4187:4199   */\n      add\n        /* \"#utility.yul\":4180:4199   */\n      swap1\n      pop\n        /* \"#utility.yul\":3839:4205   */\n      swap2\n      swap1\n      pop\n      jump\t// out\n        /* \"#utility.yul\":4211:4630   */\n    tag_40:\n        /* \"#utility.yul\":4377:4381   */\n      0x00\n        /* \"#utility.yul\":4415:4417   */\n      0x20\n        /* \"#utility.yul\":4404:4413   */\n      dup3\n        /* \"#utility.yul\":4400:4418   */\n      add\n        /* \"#utility.yul\":4392:4418   */\n      swap1\n      pop\n        /* \"#utility.yul\":4464:4473   */\n      dup2\n        /* \"#utility.yul\":4458:4462   */\n      dup2\n        /* \"#utility.yul\":4454:4474   */\n      sub\n        /* \"#utility.yul\":4450:4451   */\n      0x00\n        /* \"#utility.yul\":4439:4448   */\n      dup4\n        /* \"#utility.yul\":4435:4452   */\n      add\n        /* \"#utility.yul\":4428:4475   */\n      mstore\n        /* \"#utility.yul\":4492:4623   */\n      tag_174\n        /* \"#utility.yul\":4618:4622   */\n      dup2\n        /* \"#utility.yul\":4492:4623   */\n      tag_107\n      jump\t// in\n    tag_174:\n        /* \"#utility.yul\":4484:4623   */\n      swap1\n      pop\n        /* \"#utility.yul\":4211:4630   */\n      swap2\n      swap1\n      pop\n      jump\t// out\n        /* \"#utility.yul\":4636:4808   */\n    tag_108:\n        /* \"#utility.yul\":4776:4800   */\n      0x496e73756666696369656e74206c697175696469747900000000000000000000\n        /* \"#utility.yul\":4772:4773   */\n      0x00\n        /* \"#utility.yul\":4764:4770   */\n      dup3\n        /* \"#utility.yul\":4760:4774   */\n      add\n        /* \"#utility.yul\":4753:4801   */\n      mstore\n        /* \"#utility.yul\":4636:4808   */\n      pop\n      jump\t// out\n        /* \"#utility.yul\":4814:5180   */\n    tag_109:\n        /* \"#utility.yul\":4956:4959   */\n      0x00\n        /* \"#utility.yul\":4977:5044   */\n      tag_177\n        /* \"#utility.yul\":5041:5043   */\n      0x16\n        /* \"#utility.yul\":5036:5039   */\n      dup4\n        /* \"#utility.yul\":4977:5044   */\n      tag_105\n      jump\t// in\n    tag_177:\n        /* \"#utility.yul\":4970:5044   */\n      swap2\n      pop\n        /* \"#utility.yul\":5053:5146   */\n      tag_178\n        /* \"#utility.yul\":5142:5145   */\n      dup3\n        /* \"#utility.yul\":5053:5146   */\n      tag_108\n      jump\t// in\n    tag_178:\n        /* \"#utility.yul\":5171:5173   */\n      0x20\n        /* \"#utility.yul\":5166:5169   */\n      dup3\n        /* \"#utility.yul\":5162:5174   */\n      add\n        /* \"#utility.yul\":5155:5174   */\n      swap1\n      pop\n        /* \"#utility.yul\":4814:5180   */\n      swap2\n      swap1\n      pop\n      jump\t// out\n        /* \"#utility.yul\":5186:5605   */\n    tag_43:\n        /* \"#utility.yul\":5352:5356   */\n      0x00\n        /* \"#utility.yul\":5390:5392   */\n      0x20\n        /* \"#utility.yul\":5379:5388   */\n      dup3\n        /* \"#utility.yul\":5375:5393   */\n      add\n        /* \"#utility.yul\":5367:5393   */\n      swap1\n      pop\n        /* \"#utility.yul\":5439:5448   */\n      dup2\n        /* \"#utility.yul\":5433:5437   */\n      dup2\n        /* \"#utility.yul\":5429:5449   */\n      sub\n        /* \"#utility.yul\":5425:5426   */\n      0x00\n        /* \"#utility.yul\":5414:5423   */\n      dup4\n        /* \"#utility.yul\":5410:5427   */\n      add\n        /* \"#utility.yul\":5403:5450   */\n      mstore\n        /* \"#utility.yul\":5467:5598   */\n      tag_180\n        /* \"#utility.yul\":5593:5597   */\n      dup2\n        /* \"#utility.yul\":5467:5598   */\n      tag_109\n      jump\t// in\n    tag_180:\n        /* \"#utility.yul\":5459:5598   */\n      swap1\n      pop\n        /* \"#utility.yul\":5186:5605   */\n      swap2\n      swap1\n      pop\n      jump\t// out\n        /* \"#utility.yul\":5611:5791   */\n    tag_110:\n        /* \"#utility.yul\":5659:5736   */\n      0x4e487b7100000000000000000000000000000000000000000000000000000000\n        /* \"#utility.yul\":5656:5657   */\n      0x00\n        /* \"#utility.yul\":5649:5737   */\n      mstore\n        /* \"#utility.yul\":5756:5760   */\n      0x11\n        /* \"#utility.yul\":5753:5754   */\n      0x04\n        /* \"#utility.yul\":5746:5761   */\n      mstore\n        /* \"#utility.yul\":5780:5784   */\n      0x24\n        /* \"#utility.yul\":5777:5778   */\n      0x00\n        /* \"#utility.yul\":5770:5785   */\n      revert\n        /* \"#utility.yul\":5797:5991   */\n    tag_45:\n        /* \"#utility.yul\":5837:5841   */\n      0x00\n        /* \"#utility.yul\":5857:5877   */\n      tag_183\n        /* \"#utility.yul\":5875:5876   */\n      dup3\n        /* \"#utility.yul\":5857:5877   */\n      tag_91\n      jump\t// in\n    tag_183:\n        /* \"#utility.yul\":5852:5877   */\n      swap2\n      pop\n        /* \"#utility.yul\":5891:5911   */\n      tag_184\n        /* \"#utility.yul\":5909:5910   */\n      dup4\n        /* \"#utility.yul\":5891:5911   */\n      tag_91\n      jump\t// in\n    tag_184:\n        /* \"#utility.yul\":5886:5911   */\n      swap3\n      pop\n        /* \"#utility.yul\":5935:5936   */\n      dup3\n        /* \"#utility.yul\":5932:5933   */\n      dup3\n        /* \"#utility.yul\":5928:5937   */\n      sub\n        /* \"#utility.yul\":5920:5937   */\n      swap1\n      pop\n        /* \"#utility.yul\":5959:5960   */\n      dup2\n        /* \"#utility.yul\":5953:5957   */\n      dup2\n        /* \"#utility.yul\":5950:5961   */\n      gt\n        /* \"#utility.yul\":5947:5984   */\n      iszero\n      tag_185\n      jumpi\n        /* \"#utility.yul\":5964:5982   */\n      tag_186\n      tag_110\n      jump\t// in\n    tag_186:\n        /* \"#utility.yul\":5947:5984   */\n    tag_185:\n        /* \"#utility.yul\":5797:5991   */\n      swap3\n      swap2\n      pop\n      pop\n      jump\t// out\n        /* \"#utility.yul\":5997:6177   */\n    tag_49:\n        /* \"#utility.yul\":6045:6122   */\n      0x4e487b7100000000000000000000000000000000000000000000000000000000\n        /* \"#utility.yul\":6042:6043   */\n      0x00\n        /* \"#utility.yul\":6035:6123   */\n      mstore\n        /* \"#utility.yul\":6142:6146   */\n      0x01\n        /* \"#utility.yul\":6139:6140   */\n      0x04\n        /* \"#utility.yul\":6132:6147   */\n      mstore\n        /* \"#utility.yul\":6166:6170   */\n      0x24\n        /* \"#utility.yul\":6163:6164   */\n      0x00\n        /* \"#utility.yul\":6156:6171   */\n      revert\n        /* \"#utility.yul\":6183:6515   */\n    tag_51:\n        /* \"#utility.yul\":6304:6308   */\n      0x00\n        /* \"#utility.yul\":6342:6344   */\n      0x40\n        /* \"#utility.yul\":6331:6340   */\n      dup3\n        /* \"#utility.yul\":6327:6345   */\n      add\n        /* \"#utility.yul\":6319:6345   */\n      swap1\n      pop\n        /* \"#utility.yul\":6355:6426   */\n      tag_189\n        /* \"#utility.yul\":6423:6424   */\n      0x00\n        /* \"#utility.yul\":6412:6421   */\n      dup4\n        /* \"#utility.yul\":6408:6425   */\n      add\n        /* \"#utility.yul\":6399:6405   */\n      dup6\n        /* \"#utility.yul\":6355:6426   */\n      tag_97\n      jump\t// in\n    tag_189:\n        /* \"#utility.yul\":6436:6508   */\n      tag_190\n        /* \"#utility.yul\":6504:6506   */\n      0x20\n        /* \"#utility.yul\":6493:6502   */\n      dup4\n        /* \"#utility.yul\":6489:6507   */\n      add\n        /* \"#utility.yul\":6480:6486   */\n      dup5\n        /* \"#utility.yul\":6436:6508   */\n      tag_94\n      jump\t// in\n    tag_190:\n        /* \"#utility.yul\":6183:6515   */\n      swap4\n      swap3\n      pop\n      pop\n      pop\n      jump\t// out\n        /* \"#utility.yul\":6521:6611   */\n    tag_111:\n        /* \"#utility.yul\":6555:6562   */\n      0x00\n        /* \"#utility.yul\":6598:6603   */\n      dup2\n        /* \"#utility.yul\":6591:6604   */\n      iszero\n        /* \"#utility.yul\":6584:6605   */\n      iszero\n        /* \"#utility.yul\":6573:6605   */\n      swap1\n      pop\n        /* \"#utility.yul\":6521:6611   */\n      swap2\n      swap1\n      pop\n      jump\t// out\n        /* \"#utility.yul\":6617:6733   */\n    tag_112:\n        /* \"#utility.yul\":6687:6708   */\n      tag_193\n        /* \"#utility.yul\":6702:6707   */\n      dup2\n        /* \"#utility.yul\":6687:6708   */\n      tag_111\n      jump\t// in\n    tag_193:\n        /* \"#utility.yul\":6680:6685   */\n      dup2\n        /* \"#utility.yul\":6677:6709   */\n      eq\n        /* \"#utility.yul\":6667:6727   */\n      tag_194\n      jumpi\n        /* \"#utility.yul\":6723:6724   */\n      0x00\n        /* \"#utility.yul\":6720:6721   */\n      dup1\n        /* \"#utility.yul\":6713:6725   */\n      revert\n        /* \"#utility.yul\":6667:6727   */\n    tag_194:\n        /* \"#utility.yul\":6617:6733   */\n      pop\n      jump\t// out\n        /* \"#utility.yul\":6739:6876   */\n    tag_113:\n        /* \"#utility.yul\":6793:6798   */\n      0x00\n        /* \"#utility.yul\":6824:6830   */\n      dup2\n        /* \"#utility.yul\":6818:6831   */\n      mload\n        /* \"#utility.yul\":6809:6831   */\n      swap1\n      pop\n        /* \"#utility.yul\":6840:6870   */\n      tag_196\n        /* \"#utility.yul\":6864:6869   */\n      dup2\n        /* \"#utility.yul\":6840:6870   */\n      tag_112\n      jump\t// in\n    tag_196:\n        /* \"#utility.yul\":6739:6876   */\n      swap3\n      swap2\n      pop\n      pop\n      jump\t// out\n        /* \"#utility.yul\":6882:7227   */\n    tag_55:\n        /* \"#utility.yul\":6949:6955   */\n      0x00\n        /* \"#utility.yul\":6998:7000   */\n      0x20\n        /* \"#utility.yul\":6986:6995   */\n      dup3\n        /* \"#utility.yul\":6977:6984   */\n      dup5\n        /* \"#utility.yul\":6973:6996   */\n      sub\n        /* \"#utility.yul\":6969:7001   */\n      slt\n        /* \"#utility.yul\":6966:7085   */\n      iszero\n      tag_198\n      jumpi\n        /* \"#utility.yul\":7004:7083   */\n      tag_199\n      tag_89\n      jump\t// in\n    tag_199:\n        /* \"#utility.yul\":6966:7085   */\n    tag_198:\n        /* \"#utility.yul\":7124:7125   */\n      0x00\n        /* \"#utility.yul\":7149:7210   */\n      tag_200\n        /* \"#utility.yul\":7202:7209   */\n      dup5\n        /* \"#utility.yul\":7193:7199   */\n      dup3\n        /* \"#utility.yul\":7182:7191   */\n      dup6\n        /* \"#utility.yul\":7178:7200   */\n      add\n        /* \"#utility.yul\":7149:7210   */\n      tag_113\n      jump\t// in\n    tag_200:\n        /* \"#utility.yul\":7139:7210   */\n      swap2\n      pop\n        /* \"#utility.yul\":7095:7220   */\n      pop\n        /* \"#utility.yul\":6882:7227   */\n      swap3\n      swap2\n      pop\n      pop\n      jump\t// out\n        /* \"#utility.yul\":7233:7404   */\n    tag_114:\n        /* \"#utility.yul\":7373:7396   */\n      0x546f6b656e207472616e73666572206661696c65640000000000000000000000\n        /* \"#utility.yul\":7369:7370   */\n      0x00\n        /* \"#utility.yul\":7361:7367   */\n      dup3\n        /* \"#utility.yul\":7357:7371   */\n      add\n        /* \"#utility.yul\":7350:7397   */\n      mstore\n        /* \"#utility.yul\":7233:7404   */\n      pop\n      jump\t// out\n        /* \"#utility.yul\":7410:7776   */\n    tag_115:\n        /* \"#utility.yul\":7552:7555   */\n      0x00\n        /* \"#utility.yul\":7573:7640   */\n      tag_203\n        /* \"#utility.yul\":7637:7639   */\n      0x15\n        /* \"#utility.yul\":7632:7635   */\n      dup4\n        /* \"#utility.yul\":7573:7640   */\n      tag_105\n      jump\t// in\n    tag_203:\n        /* \"#utility.yul\":7566:7640   */\n      swap2\n      pop\n        /* \"#utility.yul\":7649:7742   */\n      tag_204\n        /* \"#utility.yul\":7738:7741   */\n      dup3\n        /* \"#utility.yul\":7649:7742   */\n      tag_114\n      jump\t// in\n    tag_204:\n        /* \"#utility.yul\":7767:7769   */\n      0x20\n        /* \"#utility.yul\":7762:7765   */\n      dup3\n        /* \"#utility.yul\":7758:7770   */\n      add\n        /* \"#utility.yul\":7751:7770   */\n      swap1\n      pop\n        /* \"#utility.yul\":7410:7776   */\n      swap2\n      swap1\n      pop\n      jump\t// out\n        /* \"#utility.yul\":7782:8201   */\n    tag_58:\n        /* \"#utility.yul\":7948:7952   */\n      0x00\n        /* \"#utility.yul\":7986:7988   */\n      0x20\n        /* \"#utility.yul\":7975:7984   */\n      dup3\n        /* \"#utility.yul\":7971:7989   */\n      add\n        /* \"#utility.yul\":7963:7989   */\n      swap1\n      pop\n        /* \"#utility.yul\":8035:8044   */\n      dup2\n        /* \"#utility.yul\":8029:8033   */\n      dup2\n        /* \"#utility.yul\":8025:8045   */\n      sub\n        /* \"#utility.yul\":8021:8022   */\n      0x00\n        /* \"#utility.yul\":8010:8019   */\n      dup4\n        /* \"#utility.yul\":8006:8023   */\n      add\n        /* \"#utility.yul\":7999:8046   */\n      mstore\n        /* \"#utility.yul\":8063:8194   */\n      tag_206\n        /* \"#utility.yul\":8189:8193   */\n      dup2\n        /* \"#utility.yul\":8063:8194   */\n      tag_115\n      jump\t// in\n    tag_206:\n        /* \"#utility.yul\":8055:8194   */\n      swap1\n      pop\n        /* \"#utility.yul\":7782:8201   */\n      swap2\n      swap1\n      pop\n      jump\t// out\n        /* \"#utility.yul\":8207:8389   */\n    tag_116:\n        /* \"#utility.yul\":8347:8381   */\n      0x4c6971756964697479206d7573742062652067726561746572207468616e2030\n        /* \"#utility.yul\":8343:8344   */\n      0x00\n        /* \"#utility.yul\":8335:8341   */\n      dup3\n        /* \"#utility.yul\":8331:8345   */\n      add\n        /* \"#utility.yul\":8324:8382   */\n      mstore\n        /* \"#utility.yul\":8207:8389   */\n      pop\n      jump\t// out\n        /* \"#utility.yul\":8395:8761   */\n    tag_117:\n        /* \"#utility.yul\":8537:8540   */\n      0x00\n        /* \"#utility.yul\":8558:8625   */\n      tag_209\n        /* \"#utility.yul\":8622:8624   */\n      0x20\n        /* \"#utility.yul\":8617:8620   */\n      dup4\n        /* \"#utility.yul\":8558:8625   */\n      tag_105\n      jump\t// in\n    tag_209:\n        /* \"#utility.yul\":8551:8625   */\n      swap2\n      pop\n        /* \"#utility.yul\":8634:8727   */\n      tag_210\n        /* \"#utility.yul\":8723:8726   */\n      dup3\n        /* \"#utility.yul\":8634:8727   */\n      tag_116\n      jump\t// in\n    tag_210:\n        /* \"#utility.yul\":8752:8754   */\n      0x20\n        /* \"#utility.yul\":8747:8750   */\n      dup3\n        /* \"#utility.yul\":8743:8755   */\n      add\n        /* \"#utility.yul\":8736:8755   */\n      swap1\n      pop\n        /* \"#utility.yul\":8395:8761   */\n      swap2\n      swap1\n      pop\n      jump\t// out\n        /* \"#utility.yul\":8767:9186   */\n    tag_62:\n        /* \"#utility.yul\":8933:8937   */\n      0x00\n        /* \"#utility.yul\":8971:8973   */\n      0x20\n        /* \"#utility.yul\":8960:8969   */\n      dup3\n        /* \"#utility.yul\":8956:8974   */\n      add\n        /* \"#utility.yul\":8948:8974   */\n      swap1\n      pop\n        /* \"#utility.yul\":9020:9029   */\n      dup2\n        /* \"#utility.yul\":9014:9018   */\n      dup2\n        /* \"#utility.yul\":9010:9030   */\n      sub\n        /* \"#utility.yul\":9006:9007   */\n      0x00\n        /* \"#utility.yul\":8995:9004   */\n      dup4\n        /* \"#utility.yul\":8991:9008   */\n      add\n        /* \"#utility.yul\":8984:9031   */\n      mstore\n        /* \"#utility.yul\":9048:9179   */\n      tag_212\n        /* \"#utility.yul\":9174:9178   */\n      dup2\n        /* \"#utility.yul\":9048:9179   */\n      tag_117\n      jump\t// in\n    tag_212:\n        /* \"#utility.yul\":9040:9179   */\n      swap1\n      pop\n        /* \"#utility.yul\":8767:9186   */\n      swap2\n      swap1\n      pop\n      jump\t// out\n        /* \"#utility.yul\":9192:9634   */\n    tag_64:\n        /* \"#utility.yul\":9341:9345   */\n      0x00\n        /* \"#utility.yul\":9379:9381   */\n      0x60\n        /* \"#utility.yul\":9368:9377   */\n      dup3\n        /* \"#utility.yul\":9364:9382   */\n      add\n        /* \"#utility.yul\":9356:9382   */\n      swap1\n      pop\n        /* \"#utility.yul\":9392:9463   */\n      tag_214\n        /* \"#utility.yul\":9460:9461   */\n      0x00\n        /* \"#utility.yul\":9449:9458   */\n      dup4\n        /* \"#utility.yul\":9445:9462   */\n      add\n        /* \"#utility.yul\":9436:9442   */\n      dup7\n        /* \"#utility.yul\":9392:9463   */\n      tag_97\n      jump\t// in\n    tag_214:\n        /* \"#utility.yul\":9473:9545   */\n      tag_215\n        /* \"#utility.yul\":9541:9543   */\n      0x20\n        /* \"#utility.yul\":9530:9539   */\n      dup4\n        /* \"#utility.yul\":9526:9544   */\n      add\n        /* \"#utility.yul\":9517:9523   */\n      dup6\n        /* \"#utility.yul\":9473:9545   */\n      tag_97\n      jump\t// in\n    tag_215:\n        /* \"#utility.yul\":9555:9627   */\n      tag_216\n        /* \"#utility.yul\":9623:9625   */\n      0x40\n        /* \"#utility.yul\":9612:9621   */\n      dup4\n        /* \"#utility.yul\":9608:9626   */\n      add\n        /* \"#utility.yul\":9599:9605   */\n      dup5\n        /* \"#utility.yul\":9555:9627   */\n      tag_94\n      jump\t// in\n    tag_216:\n        /* \"#utility.yul\":9192:9634   */\n      swap5\n      swap4\n      pop\n      pop\n      pop\n      pop\n      jump\t// out\n        /* \"#utility.yul\":9640:9831   */\n    tag_71:\n        /* \"#utility.yul\":9680:9683   */\n      0x00\n        /* \"#utility.yul\":9699:9719   */\n      tag_218\n        /* \"#utility.yul\":9717:9718   */\n      dup3\n        /* \"#utility.yul\":9699:9719   */\n      tag_91\n      jump\t// in\n    tag_218:\n        /* \"#utility.yul\":9694:9719   */\n      swap2\n      pop\n        /* \"#utility.yul\":9733:9753   */\n      tag_219\n        /* \"#utility.yul\":9751:9752   */\n      dup4\n        /* \"#utility.yul\":9733:9753   */\n      tag_91\n      jump\t// in\n    tag_219:\n        /* \"#utility.yul\":9728:9753   */\n      swap3\n      pop\n        /* \"#utility.yul\":9776:9777   */\n      dup3\n        /* \"#utility.yul\":9773:9774   */\n      dup3\n        /* \"#utility.yul\":9769:9778   */\n      add\n        /* \"#utility.yul\":9762:9778   */\n      swap1\n      pop\n        /* \"#utility.yul\":9797:9800   */\n      dup1\n        /* \"#utility.yul\":9794:9795   */\n      dup3\n        /* \"#utility.yul\":9791:9801   */\n      gt\n        /* \"#utility.yul\":9788:9824   */\n      iszero\n      tag_220\n      jumpi\n        /* \"#utility.yul\":9804:9822   */\n      tag_221\n      tag_110\n      jump\t// in\n    tag_221:\n        /* \"#utility.yul\":9788:9824   */\n    tag_220:\n        /* \"#utility.yul\":9640:9831   */\n      swap3\n      swap2\n      pop\n      pop\n      jump\t// out\n        /* \"#utility.yul\":9837:10061   */\n    tag_118:\n        /* \"#utility.yul\":9977:10011   */\n      0x4f6e6c7920746865206f776e65722063616e2063616c6c20746869732066756e\n        /* \"#utility.yul\":9973:9974   */\n      0x00\n        /* \"#utility.yul\":9965:9971   */\n      dup3\n        /* \"#utility.yul\":9961:9975   */\n      add\n        /* \"#utility.yul\":9954:10012   */\n      mstore\n        /* \"#utility.yul\":10046:10053   */\n      0x6374696f6e000000000000000000000000000000000000000000000000000000\n        /* \"#utility.yul\":10041:10043   */\n      0x20\n        /* \"#utility.yul\":10033:10039   */\n      dup3\n        /* \"#utility.yul\":10029:10044   */\n      add\n        /* \"#utility.yul\":10022:10054   */\n      mstore\n        /* \"#utility.yul\":9837:10061   */\n      pop\n      jump\t// out\n        /* \"#utility.yul\":10067:10433   */\n    tag_119:\n        /* \"#utility.yul\":10209:10212   */\n      0x00\n        /* \"#utility.yul\":10230:10297   */\n      tag_224\n        /* \"#utility.yul\":10294:10296   */\n      0x25\n        /* \"#utility.yul\":10289:10292   */\n      dup4\n        /* \"#utility.yul\":10230:10297   */\n      tag_105\n      jump\t// in\n    tag_224:\n        /* \"#utility.yul\":10223:10297   */\n      swap2\n      pop\n        /* \"#utility.yul\":10306:10399   */\n      tag_225\n        /* \"#utility.yul\":10395:10398   */\n      dup3\n        /* \"#utility.yul\":10306:10399   */\n      tag_118\n      jump\t// in\n    tag_225:\n        /* \"#utility.yul\":10424:10426   */\n      0x40\n        /* \"#utility.yul\":10419:10422   */\n      dup3\n        /* \"#utility.yul\":10415:10427   */\n      add\n        /* \"#utility.yul\":10408:10427   */\n      swap1\n      pop\n        /* \"#utility.yul\":10067:10433   */\n      swap2\n      swap1\n      pop\n      jump\t// out\n        /* \"#utility.yul\":10439:10858   */\n    tag_76:\n        /* \"#utility.yul\":10605:10609   */\n      0x00\n        /* \"#utility.yul\":10643:10645   */\n      0x20\n        /* \"#utility.yul\":10632:10641   */\n      dup3\n        /* \"#utility.yul\":10628:10646   */\n      add\n        /* \"#utility.yul\":10620:10646   */\n      swap1\n      pop\n        /* \"#utility.yul\":10692:10701   */\n      dup2\n        /* \"#utility.yul\":10686:10690   */\n      dup2\n        /* \"#utility.yul\":10682:10702   */\n      sub\n        /* \"#utility.yul\":10678:10679   */\n      0x00\n        /* \"#utility.yul\":10667:10676   */\n      dup4\n        /* \"#utility.yul\":10663:10680   */\n      add\n        /* \"#utility.yul\":10656:10703   */\n      mstore\n        /* \"#utility.yul\":10720:10851   */\n      tag_227\n        /* \"#utility.yul\":10846:10850   */\n      dup2\n        /* \"#utility.yul\":10720:10851   */\n      tag_119\n      jump\t// in\n    tag_227:\n        /* \"#utility.yul\":10712:10851   */\n      swap1\n      pop\n        /* \"#utility.yul\":10439:10858   */\n      swap2\n      swap1\n      pop\n      jump\t// out\n        /* \"#utility.yul\":10864:11007   */\n    tag_120:\n        /* \"#utility.yul\":10921:10926   */\n      0x00\n        /* \"#utility.yul\":10952:10958   */\n      dup2\n        /* \"#utility.yul\":10946:10959   */\n      mload\n        /* \"#utility.yul\":10937:10959   */\n      swap1\n      pop\n        /* \"#utility.yul\":10968:11001   */\n      tag_229\n        /* \"#utility.yul\":10995:11000   */\n      dup2\n        /* \"#utility.yul\":10968:11001   */\n      tag_92\n      jump\t// in\n    tag_229:\n        /* \"#utility.yul\":10864:11007   */\n      swap3\n      swap2\n      pop\n      pop\n      jump\t// out\n        /* \"#utility.yul\":11013:11364   */\n    tag_81:\n        /* \"#utility.yul\":11083:11089   */\n      0x00\n        /* \"#utility.yul\":11132:11134   */\n      0x20\n        /* \"#utility.yul\":11120:11129   */\n      dup3\n        /* \"#utility.yul\":11111:11118   */\n      dup5\n        /* \"#utility.yul\":11107:11130   */\n      sub\n        /* \"#utility.yul\":11103:11135   */\n      slt\n        /* \"#utility.yul\":11100:11219   */\n      iszero\n      tag_231\n      jumpi\n        /* \"#utility.yul\":11138:11217   */\n      tag_232\n      tag_89\n      jump\t// in\n    tag_232:\n        /* \"#utility.yul\":11100:11219   */\n    tag_231:\n        /* \"#utility.yul\":11258:11259   */\n      0x00\n        /* \"#utility.yul\":11283:11347   */\n      tag_233\n        /* \"#utility.yul\":11339:11346   */\n      dup5\n        /* \"#utility.yul\":11330:11336   */\n      dup3\n        /* \"#utility.yul\":11319:11328   */\n      dup6\n        /* \"#utility.yul\":11315:11337   */\n      add\n        /* \"#utility.yul\":11283:11347   */\n      tag_120\n      jump\t// in\n    tag_233:\n        /* \"#utility.yul\":11273:11347   */\n      swap2\n      pop\n        /* \"#utility.yul\":11229:11357   */\n      pop\n        /* \"#utility.yul\":11013:11364   */\n      swap3\n      swap2\n      pop\n      pop\n      jump\t// out\n\n    auxdata: 0xa26469706673582212203c781d61dd796e3039110e6af454b0b744c9bfb60913737b775b4368bd12d3c764736f6c634300081a0033\n}\n",
				"bytecode": {
					"linkReferences": {},
					"object": "608060405234801561000f575f80fd5b50604051610eac380380610eac83398181016040528101906100319190610114565b335f806101000a81548173ffffffffffffffffffffffffffffffffffffffff021916908373ffffffffffffffffffffffffffffffffffffffff1602179055508060025f6101000a81548173ffffffffffffffffffffffffffffffffffffffff021916908373ffffffffffffffffffffffffffffffffffffffff1602179055505061013f565b5f80fd5b5f73ffffffffffffffffffffffffffffffffffffffff82169050919050565b5f6100e3826100ba565b9050919050565b6100f3816100d9565b81146100fd575f80fd5b50565b5f8151905061010e816100ea565b92915050565b5f60208284031215610129576101286100b6565b5b5f61013684828501610100565b91505092915050565b610d608061014c5f395ff3fe608060405234801561000f575f80fd5b506004361061007b575f3560e01c80638da5cb5b116100595780638da5cb5b146100d5578063db2e21bc146100f3578063dbd94267146100fd578063fc0c546a1461012d5761007b565b80630a861f2a1461007f57806315770f921461009b57806351c6590a146100b9575b5f80fd5b610099600480360381019061009491906107bd565b61014b565b005b6100a3610369565b6040516100b091906107f7565b60405180910390f35b6100d360048036038101906100ce91906107bd565b61036f565b005b6100dd6104fc565b6040516100ea919061084f565b60405180910390f35b6100fb61051f565b005b61011760048036038101906101129190610892565b61074c565b60405161012491906107f7565b60405180910390f35b610135610761565b6040516101429190610918565b60405180910390f35b5f811161018d576040517f08c379a00000000000000000000000000000000000000000000000000000000081526004016101849061098b565b60405180910390fd5b60035f3373ffffffffffffffffffffffffffffffffffffffff1673ffffffffffffffffffffffffffffffffffffffff1681526020019081526020015f205481111561020d576040517f08c379a0000000000000000000000000000000000000000000000000000000008152600401610204906109f3565b60405180910390fd5b8060035f3373ffffffffffffffffffffffffffffffffffffffff1673ffffffffffffffffffffffffffffffffffffffff1681526020019081526020015f205f8282546102599190610a3e565b925050819055508060015f8282546102719190610a3e565b925050819055505f600154101561028b5761028a610a71565b5b60025f9054906101000a900473ffffffffffffffffffffffffffffffffffffffff1673ffffffffffffffffffffffffffffffffffffffff1663a9059cbb33836040518363ffffffff1660e01b81526004016102e7929190610a9e565b6020604051808303815f875af1158015610303573d5f803e3d5ffd5b505050506040513d601f19601f820116820180604052508101906103279190610afa565b610366576040517f08c379a000000000000000000000000000000000000000000000000000000000815260040161035d90610b6f565b60405180910390fd5b50565b60015481565b5f81116103b1576040517f08c379a00000000000000000000000000000000000000000000000000000000081526004016103a890610bd7565b60405180910390fd5b60025f9054906101000a900473ffffffffffffffffffffffffffffffffffffffff1673ffffffffffffffffffffffffffffffffffffffff166323b872dd3330846040518463ffffffff1660e01b815260040161040f93929190610bf5565b6020604051808303815f875af115801561042b573d5f803e3d5ffd5b505050506040513d601f19601f8201168201806040525081019061044f9190610afa565b61048e576040517f08c379a000000000000000000000000000000000000000000000000000000000815260040161048590610b6f565b60405180910390fd5b8060035f3373ffffffffffffffffffffffffffffffffffffffff1673ffffffffffffffffffffffffffffffffffffffff1681526020019081526020015f205f8282546104da9190610c2a565b925050819055508060015f8282546104f29190610c2a565b9250508190555050565b5f8054906101000a900473ffffffffffffffffffffffffffffffffffffffff1681565b5f8054906101000a900473ffffffffffffffffffffffffffffffffffffffff1673ffffffffffffffffffffffffffffffffffffffff163373ffffffffffffffffffffffffffffffffffffffff16146105ac576040517f08c379a00000000000000000000000000000000000000000000000000000000081526004016105a390610ccd565b60405180910390fd5b5f60025f9054906101000a900473ffffffffffffffffffffffffffffffffffffffff1673ffffffffffffffffffffffffffffffffffffffff166370a08231306040518263ffffffff1660e01b8152600401610607919061084f565b602060405180830381865afa158015610622573d5f803e3d5ffd5b505050506040513d601f19601f820116820180604052508101906106469190610cff565b90505f60018190555060025f9054906101000a900473ffffffffffffffffffffffffffffffffffffffff1673ffffffffffffffffffffffffffffffffffffffff1663a9059cbb5f8054906101000a900473ffffffffffffffffffffffffffffffffffffffff16836040518363ffffffff1660e01b81526004016106ca929190610a9e565b6020604051808303815f875af11580156106e6573d5f803e3d5ffd5b505050506040513d601f19601f8201168201806040525081019061070a9190610afa565b610749576040517f08c379a000000000000000000000000000000000000000000000000000000000815260040161074090610b6f565b60405180910390fd5b50565b6003602052805f5260405f205f915090505481565b60025f9054906101000a900473ffffffffffffffffffffffffffffffffffffffff1681565b5f80fd5b5f819050919050565b61079c8161078a565b81146107a6575f80fd5b50565b5f813590506107b781610793565b92915050565b5f602082840312156107d2576107d1610786565b5b5f6107df848285016107a9565b91505092915050565b6107f18161078a565b82525050565b5f60208201905061080a5f8301846107e8565b92915050565b5f73ffffffffffffffffffffffffffffffffffffffff82169050919050565b5f61083982610810565b9050919050565b6108498161082f565b82525050565b5f6020820190506108625f830184610840565b92915050565b6108718161082f565b811461087b575f80fd5b50565b5f8135905061088c81610868565b92915050565b5f602082840312156108a7576108a6610786565b5b5f6108b48482850161087e565b91505092915050565b5f819050919050565b5f6108e06108db6108d684610810565b6108bd565b610810565b9050919050565b5f6108f1826108c6565b9050919050565b5f610902826108e7565b9050919050565b610912816108f8565b82525050565b5f60208201905061092b5f830184610909565b92915050565b5f82825260208201905092915050565b7f416d6f756e74206d7573742062652067726561746572207468616e20300000005f82015250565b5f610975601d83610931565b915061098082610941565b602082019050919050565b5f6020820190508181035f8301526109a281610969565b9050919050565b7f496e73756666696369656e74206c6971756964697479000000000000000000005f82015250565b5f6109dd601683610931565b91506109e8826109a9565b602082019050919050565b5f6020820190508181035f830152610a0a816109d1565b9050919050565b7f4e487b71000000000000000000000000000000000000000000000000000000005f52601160045260245ffd5b5f610a488261078a565b9150610a538361078a565b9250828203905081811115610a6b57610a6a610a11565b5b92915050565b7f4e487b71000000000000000000000000000000000000000000000000000000005f52600160045260245ffd5b5f604082019050610ab15f830185610840565b610abe60208301846107e8565b9392505050565b5f8115159050919050565b610ad981610ac5565b8114610ae3575f80fd5b50565b5f81519050610af481610ad0565b92915050565b5f60208284031215610b0f57610b0e610786565b5b5f610b1c84828501610ae6565b91505092915050565b7f546f6b656e207472616e73666572206661696c656400000000000000000000005f82015250565b5f610b59601583610931565b9150610b6482610b25565b602082019050919050565b5f6020820190508181035f830152610b8681610b4d565b9050919050565b7f4c6971756964697479206d7573742062652067726561746572207468616e20305f82015250565b5f610bc1602083610931565b9150610bcc82610b8d565b602082019050919050565b5f6020820190508181035f830152610bee81610bb5565b9050919050565b5f606082019050610c085f830186610840565b610c156020830185610840565b610c2260408301846107e8565b949350505050565b5f610c348261078a565b9150610c3f8361078a565b9250828201905080821115610c5757610c56610a11565b5b92915050565b7f4f6e6c7920746865206f776e65722063616e2063616c6c20746869732066756e5f8201527f6374696f6e000000000000000000000000000000000000000000000000000000602082015250565b5f610cb7602583610931565b9150610cc282610c5d565b604082019050919050565b5f6020820190508181035f830152610ce481610cab565b9050919050565b5f81519050610cf981610793565b92915050565b5f60208284031215610d1457610d13610786565b5b5f610d2184828501610ceb565b9150509291505056fea26469706673582212203c781d61dd796e3039110e6af454b0b744c9bfb60913737b775b4368bd12d3c764736f6c634300081a0033",
					"opcodes": "PUSH1 0x80 PUSH1 0x40 MSTORE CALLVALUE DUP1 ISZERO PUSH2 0xF JUMPI PUSH0 DUP1 REVERT JUMPDEST POP PUSH1 0x40 MLOAD PUSH2 0xEAC CODESIZE SUB DUP1 PUSH2 0xEAC DUP4 CODECOPY DUP2 DUP2 ADD PUSH1 0x40 MSTORE DUP2 ADD SWAP1 PUSH2 0x31 SWAP2 SWAP1 PUSH2 0x114 JUMP JUMPDEST CALLER PUSH0 DUP1 PUSH2 0x100 EXP DUP2 SLOAD DUP2 PUSH20 0xFFFFFFFFFFFFFFFFFFFFFFFFFFFFFFFFFFFFFFFF MUL NOT AND SWAP1 DUP4 PUSH20 0xFFFFFFFFFFFFFFFFFFFFFFFFFFFFFFFFFFFFFFFF AND MUL OR SWAP1 SSTORE POP DUP1 PUSH1 0x2 PUSH0 PUSH2 0x100 EXP DUP2 SLOAD DUP2 PUSH20 0xFFFFFFFFFFFFFFFFFFFFFFFFFFFFFFFFFFFFFFFF MUL NOT AND SWAP1 DUP4 PUSH20 0xFFFFFFFFFFFFFFFFFFFFFFFFFFFFFFFFFFFFFFFF AND MUL OR SWAP1 SSTORE POP POP PUSH2 0x13F JUMP JUMPDEST PUSH0 DUP1 REVERT JUMPDEST PUSH0 PUSH20 0xFFFFFFFFFFFFFFFFFFFFFFFFFFFFFFFFFFFFFFFF DUP3 AND SWAP1 POP SWAP2 SWAP1 POP JUMP JUMPDEST PUSH0 PUSH2 0xE3 DUP3 PUSH2 0xBA JUMP JUMPDEST SWAP1 POP SWAP2 SWAP1 POP JUMP JUMPDEST PUSH2 0xF3 DUP2 PUSH2 0xD9 JUMP JUMPDEST DUP2 EQ PUSH2 0xFD JUMPI PUSH0 DUP1 REVERT JUMPDEST POP JUMP JUMPDEST PUSH0 DUP2 MLOAD SWAP1 POP PUSH2 0x10E DUP2 PUSH2 0xEA JUMP JUMPDEST SWAP3 SWAP2 POP POP JUMP JUMPDEST PUSH0 PUSH1 0x20 DUP3 DUP5 SUB SLT ISZERO PUSH2 0x129 JUMPI PUSH2 0x128 PUSH2 0xB6 JUMP JUMPDEST JUMPDEST PUSH0 PUSH2 0x136 DUP5 DUP3 DUP6 ADD PUSH2 0x100 JUMP JUMPDEST SWAP2 POP POP SWAP3 SWAP2 POP POP JUMP JUMPDEST PUSH2 0xD60 DUP1 PUSH2 0x14C PUSH0 CODECOPY PUSH0 RETURN INVALID PUSH1 0x80 PUSH1 0x40 MSTORE CALLVALUE DUP1 ISZERO PUSH2 0xF JUMPI PUSH0 DUP1 REVERT JUMPDEST POP PUSH1 0x4 CALLDATASIZE LT PUSH2 0x7B JUMPI PUSH0 CALLDATALOAD PUSH1 0xE0 SHR DUP1 PUSH4 0x8DA5CB5B GT PUSH2 0x59 JUMPI DUP1 PUSH4 0x8DA5CB5B EQ PUSH2 0xD5 JUMPI DUP1 PUSH4 0xDB2E21BC EQ PUSH2 0xF3 JUMPI DUP1 PUSH4 0xDBD94267 EQ PUSH2 0xFD JUMPI DUP1 PUSH4 0xFC0C546A EQ PUSH2 0x12D JUMPI PUSH2 0x7B JUMP JUMPDEST DUP1 PUSH4 0xA861F2A EQ PUSH2 0x7F JUMPI DUP1 PUSH4 0x15770F92 EQ PUSH2 0x9B JUMPI DUP1 PUSH4 0x51C6590A EQ PUSH2 0xB9 JUMPI JUMPDEST PUSH0 DUP1 REVERT JUMPDEST PUSH2 0x99 PUSH1 0x4 DUP1 CALLDATASIZE SUB DUP2 ADD SWAP1 PUSH2 0x94 SWAP2 SWAP1 PUSH2 0x7BD JUMP JUMPDEST PUSH2 0x14B JUMP JUMPDEST STOP JUMPDEST PUSH2 0xA3 PUSH2 0x369 JUMP JUMPDEST PUSH1 0x40 MLOAD PUSH2 0xB0 SWAP2 SWAP1 PUSH2 0x7F7 JUMP JUMPDEST PUSH1 0x40 MLOAD DUP1 SWAP2 SUB SWAP1 RETURN JUMPDEST PUSH2 0xD3 PUSH1 0x4 DUP1 CALLDATASIZE SUB DUP2 ADD SWAP1 PUSH2 0xCE SWAP2 SWAP1 PUSH2 0x7BD JUMP JUMPDEST PUSH2 0x36F JUMP JUMPDEST STOP JUMPDEST PUSH2 0xDD PUSH2 0x4FC JUMP JUMPDEST PUSH1 0x40 MLOAD PUSH2 0xEA SWAP2 SWAP1 PUSH2 0x84F JUMP JUMPDEST PUSH1 0x40 MLOAD DUP1 SWAP2 SUB SWAP1 RETURN JUMPDEST PUSH2 0xFB PUSH2 0x51F JUMP JUMPDEST STOP JUMPDEST PUSH2 0x117 PUSH1 0x4 DUP1 CALLDATASIZE SUB DUP2 ADD SWAP1 PUSH2 0x112 SWAP2 SWAP1 PUSH2 0x892 JUMP JUMPDEST PUSH2 0x74C JUMP JUMPDEST PUSH1 0x40 MLOAD PUSH2 0x124 SWAP2 SWAP1 PUSH2 0x7F7 JUMP JUMPDEST PUSH1 0x40 MLOAD DUP1 SWAP2 SUB SWAP1 RETURN JUMPDEST PUSH2 0x135 PUSH2 0x761 JUMP JUMPDEST PUSH1 0x40 MLOAD PUSH2 0x142 SWAP2 SWAP1 PUSH2 0x918 JUMP JUMPDEST PUSH1 0x40 MLOAD DUP1 SWAP2 SUB SWAP1 RETURN JUMPDEST PUSH0 DUP2 GT PUSH2 0x18D JUMPI PUSH1 0x40 MLOAD PUSH32 0x8C379A000000000000000000000000000000000000000000000000000000000 DUP2 MSTORE PUSH1 0x4 ADD PUSH2 0x184 SWAP1 PUSH2 0x98B JUMP JUMPDEST PUSH1 0x40 MLOAD DUP1 SWAP2 SUB SWAP1 REVERT JUMPDEST PUSH1 0x3 PUSH0 CALLER PUSH20 0xFFFFFFFFFFFFFFFFFFFFFFFFFFFFFFFFFFFFFFFF AND PUSH20 0xFFFFFFFFFFFFFFFFFFFFFFFFFFFFFFFFFFFFFFFF AND DUP2 MSTORE PUSH1 0x20 ADD SWAP1 DUP2 MSTORE PUSH1 0x20 ADD PUSH0 KECCAK256 SLOAD DUP2 GT ISZERO PUSH2 0x20D JUMPI PUSH1 0x40 MLOAD PUSH32 0x8C379A000000000000000000000000000000000000000000000000000000000 DUP2 MSTORE PUSH1 0x4 ADD PUSH2 0x204 SWAP1 PUSH2 0x9F3 JUMP JUMPDEST PUSH1 0x40 MLOAD DUP1 SWAP2 SUB SWAP1 REVERT JUMPDEST DUP1 PUSH1 0x3 PUSH0 CALLER PUSH20 0xFFFFFFFFFFFFFFFFFFFFFFFFFFFFFFFFFFFFFFFF AND PUSH20 0xFFFFFFFFFFFFFFFFFFFFFFFFFFFFFFFFFFFFFFFF AND DUP2 MSTORE PUSH1 0x20 ADD SWAP1 DUP2 MSTORE PUSH1 0x20 ADD PUSH0 KECCAK256 PUSH0 DUP3 DUP3 SLOAD PUSH2 0x259 SWAP2 SWAP1 PUSH2 0xA3E JUMP JUMPDEST SWAP3 POP POP DUP2 SWAP1 SSTORE POP DUP1 PUSH1 0x1 PUSH0 DUP3 DUP3 SLOAD PUSH2 0x271 SWAP2 SWAP1 PUSH2 0xA3E JUMP JUMPDEST SWAP3 POP POP DUP2 SWAP1 SSTORE POP PUSH0 PUSH1 0x1 SLOAD LT ISZERO PUSH2 0x28B JUMPI PUSH2 0x28A PUSH2 0xA71 JUMP JUMPDEST JUMPDEST PUSH1 0x2 PUSH0 SWAP1 SLOAD SWAP1 PUSH2 0x100 EXP SWAP1 DIV PUSH20 0xFFFFFFFFFFFFFFFFFFFFFFFFFFFFFFFFFFFFFFFF AND PUSH20 0xFFFFFFFFFFFFFFFFFFFFFFFFFFFFFFFFFFFFFFFF AND PUSH4 0xA9059CBB CALLER DUP4 PUSH1 0x40 MLOAD DUP4 PUSH4 0xFFFFFFFF AND PUSH1 0xE0 SHL DUP2 MSTORE PUSH1 0x4 ADD PUSH2 0x2E7 SWAP3 SWAP2 SWAP1 PUSH2 0xA9E JUMP JUMPDEST PUSH1 0x20 PUSH1 0x40 MLOAD DUP1 DUP4 SUB DUP2 PUSH0 DUP8 GAS CALL ISZERO DUP1 ISZERO PUSH2 0x303 JUMPI RETURNDATASIZE PUSH0 DUP1 RETURNDATACOPY RETURNDATASIZE PUSH0 REVERT JUMPDEST POP POP POP POP PUSH1 0x40 MLOAD RETURNDATASIZE PUSH1 0x1F NOT PUSH1 0x1F DUP3 ADD AND DUP3 ADD DUP1 PUSH1 0x40 MSTORE POP DUP2 ADD SWAP1 PUSH2 0x327 SWAP2 SWAP1 PUSH2 0xAFA JUMP JUMPDEST PUSH2 0x366 JUMPI PUSH1 0x40 MLOAD PUSH32 0x8C379A000000000000000000000000000000000000000000000000000000000 DUP2 MSTORE PUSH1 0x4 ADD PUSH2 0x35D SWAP1 PUSH2 0xB6F JUMP JUMPDEST PUSH1 0x40 MLOAD DUP1 SWAP2 SUB SWAP1 REVERT JUMPDEST POP JUMP JUMPDEST PUSH1 0x1 SLOAD DUP2 JUMP JUMPDEST PUSH0 DUP2 GT PUSH2 0x3B1 JUMPI PUSH1 0x40 MLOAD PUSH32 0x8C379A000000000000000000000000000000000000000000000000000000000 DUP2 MSTORE PUSH1 0x4 ADD PUSH2 0x3A8 SWAP1 PUSH2 0xBD7 JUMP JUMPDEST PUSH1 0x40 MLOAD DUP1 SWAP2 SUB SWAP1 REVERT JUMPDEST PUSH1 0x2 PUSH0 SWAP1 SLOAD SWAP1 PUSH2 0x100 EXP SWAP1 DIV PUSH20 0xFFFFFFFFFFFFFFFFFFFFFFFFFFFFFFFFFFFFFFFF AND PUSH20 0xFFFFFFFFFFFFFFFFFFFFFFFFFFFFFFFFFFFFFFFF AND PUSH4 0x23B872DD CALLER ADDRESS DUP5 PUSH1 0x40 MLOAD DUP5 PUSH4 0xFFFFFFFF AND PUSH1 0xE0 SHL DUP2 MSTORE PUSH1 0x4 ADD PUSH2 0x40F SWAP4 SWAP3 SWAP2 SWAP1 PUSH2 0xBF5 JUMP JUMPDEST PUSH1 0x20 PUSH1 0x40 MLOAD DUP1 DUP4 SUB DUP2 PUSH0 DUP8 GAS CALL ISZERO DUP1 ISZERO PUSH2 0x42B JUMPI RETURNDATASIZE PUSH0 DUP1 RETURNDATACOPY RETURNDATASIZE PUSH0 REVERT JUMPDEST POP POP POP POP PUSH1 0x40 MLOAD RETURNDATASIZE PUSH1 0x1F NOT PUSH1 0x1F DUP3 ADD AND DUP3 ADD DUP1 PUSH1 0x40 MSTORE POP DUP2 ADD SWAP1 PUSH2 0x44F SWAP2 SWAP1 PUSH2 0xAFA JUMP JUMPDEST PUSH2 0x48E JUMPI PUSH1 0x40 MLOAD PUSH32 0x8C379A000000000000000000000000000000000000000000000000000000000 DUP2 MSTORE PUSH1 0x4 ADD PUSH2 0x485 SWAP1 PUSH2 0xB6F JUMP JUMPDEST PUSH1 0x40 MLOAD DUP1 SWAP2 SUB SWAP1 REVERT JUMPDEST DUP1 PUSH1 0x3 PUSH0 CALLER PUSH20 0xFFFFFFFFFFFFFFFFFFFFFFFFFFFFFFFFFFFFFFFF AND PUSH20 0xFFFFFFFFFFFFFFFFFFFFFFFFFFFFFFFFFFFFFFFF AND DUP2 MSTORE PUSH1 0x20 ADD SWAP1 DUP2 MSTORE PUSH1 0x20 ADD PUSH0 KECCAK256 PUSH0 DUP3 DUP3 SLOAD PUSH2 0x4DA SWAP2 SWAP1 PUSH2 0xC2A JUMP JUMPDEST SWAP3 POP POP DUP2 SWAP1 SSTORE POP DUP1 PUSH1 0x1 PUSH0 DUP3 DUP3 SLOAD PUSH2 0x4F2 SWAP2 SWAP1 PUSH2 0xC2A JUMP JUMPDEST SWAP3 POP POP DUP2 SWAP1 SSTORE POP POP JUMP JUMPDEST PUSH0 DUP1 SLOAD SWAP1 PUSH2 0x100 EXP SWAP1 DIV PUSH20 0xFFFFFFFFFFFFFFFFFFFFFFFFFFFFFFFFFFFFFFFF AND DUP2 JUMP JUMPDEST PUSH0 DUP1 SLOAD SWAP1 PUSH2 0x100 EXP SWAP1 DIV PUSH20 0xFFFFFFFFFFFFFFFFFFFFFFFFFFFFFFFFFFFFFFFF AND PUSH20 0xFFFFFFFFFFFFFFFFFFFFFFFFFFFFFFFFFFFFFFFF AND CALLER PUSH20 0xFFFFFFFFFFFFFFFFFFFFFFFFFFFFFFFFFFFFFFFF AND EQ PUSH2 0x5AC JUMPI PUSH1 0x40 MLOAD PUSH32 0x8C379A000000000000000000000000000000000000000000000000000000000 DUP2 MSTORE PUSH1 0x4 ADD PUSH2 0x5A3 SWAP1 PUSH2 0xCCD JUMP JUMPDEST PUSH1 0x40 MLOAD DUP1 SWAP2 SUB SWAP1 REVERT JUMPDEST PUSH0 PUSH1 0x2 PUSH0 SWAP1 SLOAD SWAP1 PUSH2 0x100 EXP SWAP1 DIV PUSH20 0xFFFFFFFFFFFFFFFFFFFFFFFFFFFFFFFFFFFFFFFF AND PUSH20 0xFFFFFFFFFFFFFFFFFFFFFFFFFFFFFFFFFFFFFFFF AND PUSH4 0x70A08231 ADDRESS PUSH1 0x40 MLOAD DUP3 PUSH4 0xFFFFFFFF AND PUSH1 0xE0 SHL DUP2 MSTORE PUSH1 0x4 ADD PUSH2 0x607 SWAP2 SWAP1 PUSH2 0x84F JUMP JUMPDEST PUSH1 0x20 PUSH1 0x40 MLOAD DUP1 DUP4 SUB DUP2 DUP7 GAS STATICCALL ISZERO DUP1 ISZERO PUSH2 0x622 JUMPI RETURNDATASIZE PUSH0 DUP1 RETURNDATACOPY RETURNDATASIZE PUSH0 REVERT JUMPDEST POP POP POP POP PUSH1 0x40 MLOAD RETURNDATASIZE PUSH1 0x1F NOT PUSH1 0x1F DUP3 ADD AND DUP3 ADD DUP1 PUSH1 0x40 MSTORE POP DUP2 ADD SWAP1 PUSH2 0x646 SWAP2 SWAP1 PUSH2 0xCFF JUMP JUMPDEST SWAP1 POP PUSH0 PUSH1 0x1 DUP2 SWAP1 SSTORE POP PUSH1 0x2 PUSH0 SWAP1 SLOAD SWAP1 PUSH2 0x100 EXP SWAP1 DIV PUSH20 0xFFFFFFFFFFFFFFFFFFFFFFFFFFFFFFFFFFFFFFFF AND PUSH20 0xFFFFFFFFFFFFFFFFFFFFFFFFFFFFFFFFFFFFFFFF AND PUSH4 0xA9059CBB PUSH0 DUP1 SLOAD SWAP1 PUSH2 0x100 EXP SWAP1 DIV PUSH20 0xFFFFFFFFFFFFFFFFFFFFFFFFFFFFFFFFFFFFFFFF AND DUP4 PUSH1 0x40 MLOAD DUP4 PUSH4 0xFFFFFFFF AND PUSH1 0xE0 SHL DUP2 MSTORE PUSH1 0x4 ADD PUSH2 0x6CA SWAP3 SWAP2 SWAP1 PUSH2 0xA9E JUMP JUMPDEST PUSH1 0x20 PUSH1 0x40 MLOAD DUP1 DUP4 SUB DUP2 PUSH0 DUP8 GAS CALL ISZERO DUP1 ISZERO PUSH2 0x6E6 JUMPI RETURNDATASIZE PUSH0 DUP1 RETURNDATACOPY RETURNDATASIZE PUSH0 REVERT JUMPDEST POP POP POP POP PUSH1 0x40 MLOAD RETURNDATASIZE PUSH1 0x1F NOT PUSH1 0x1F DUP3 ADD AND DUP3 ADD DUP1 PUSH1 0x40 MSTORE POP DUP2 ADD SWAP1 PUSH2 0x70A SWAP2 SWAP1 PUSH2 0xAFA JUMP JUMPDEST PUSH2 0x749 JUMPI PUSH1 0x40 MLOAD PUSH32 0x8C379A000000000000000000000000000000000000000000000000000000000 DUP2 MSTORE PUSH1 0x4 ADD PUSH2 0x740 SWAP1 PUSH2 0xB6F JUMP JUMPDEST PUSH1 0x40 MLOAD DUP1 SWAP2 SUB SWAP1 REVERT JUMPDEST POP JUMP JUMPDEST PUSH1 0x3 PUSH1 0x20 MSTORE DUP1 PUSH0 MSTORE PUSH1 0x40 PUSH0 KECCAK256 PUSH0 SWAP2 POP SWAP1 POP SLOAD DUP2 JUMP JUMPDEST PUSH1 0x2 PUSH0 SWAP1 SLOAD SWAP1 PUSH2 0x100 EXP SWAP1 DIV PUSH20 0xFFFFFFFFFFFFFFFFFFFFFFFFFFFFFFFFFFFFFFFF AND DUP2 JUMP JUMPDEST PUSH0 DUP1 REVERT JUMPDEST PUSH0 DUP2 SWAP1 POP SWAP2 SWAP1 POP JUMP JUMPDEST PUSH2 0x79C DUP2 PUSH2 0x78A JUMP JUMPDEST DUP2 EQ PUSH2 0x7A6 JUMPI PUSH0 DUP1 REVERT JUMPDEST POP JUMP JUMPDEST PUSH0 DUP2 CALLDATALOAD SWAP1 POP PUSH2 0x7B7 DUP2 PUSH2 0x793 JUMP JUMPDEST SWAP3 SWAP2 POP POP JUMP JUMPDEST PUSH0 PUSH1 0x20 DUP3 DUP5 SUB SLT ISZERO PUSH2 0x7D2 JUMPI PUSH2 0x7D1 PUSH2 0x786 JUMP JUMPDEST JUMPDEST PUSH0 PUSH2 0x7DF DUP5 DUP3 DUP6 ADD PUSH2 0x7A9 JUMP JUMPDEST SWAP2 POP POP SWAP3 SWAP2 POP POP JUMP JUMPDEST PUSH2 0x7F1 DUP2 PUSH2 0x78A JUMP JUMPDEST DUP3 MSTORE POP POP JUMP JUMPDEST PUSH0 PUSH1 0x20 DUP3 ADD SWAP1 POP PUSH2 0x80A PUSH0 DUP4 ADD DUP5 PUSH2 0x7E8 JUMP JUMPDEST SWAP3 SWAP2 POP POP JUMP JUMPDEST PUSH0 PUSH20 0xFFFFFFFFFFFFFFFFFFFFFFFFFFFFFFFFFFFFFFFF DUP3 AND SWAP1 POP SWAP2 SWAP1 POP JUMP JUMPDEST PUSH0 PUSH2 0x839 DUP3 PUSH2 0x810 JUMP JUMPDEST SWAP1 POP SWAP2 SWAP1 POP JUMP JUMPDEST PUSH2 0x849 DUP2 PUSH2 0x82F JUMP JUMPDEST DUP3 MSTORE POP POP JUMP JUMPDEST PUSH0 PUSH1 0x20 DUP3 ADD SWAP1 POP PUSH2 0x862 PUSH0 DUP4 ADD DUP5 PUSH2 0x840 JUMP JUMPDEST SWAP3 SWAP2 POP POP JUMP JUMPDEST PUSH2 0x871 DUP2 PUSH2 0x82F JUMP JUMPDEST DUP2 EQ PUSH2 0x87B JUMPI PUSH0 DUP1 REVERT JUMPDEST POP JUMP JUMPDEST PUSH0 DUP2 CALLDATALOAD SWAP1 POP PUSH2 0x88C DUP2 PUSH2 0x868 JUMP JUMPDEST SWAP3 SWAP2 POP POP JUMP JUMPDEST PUSH0 PUSH1 0x20 DUP3 DUP5 SUB SLT ISZERO PUSH2 0x8A7 JUMPI PUSH2 0x8A6 PUSH2 0x786 JUMP JUMPDEST JUMPDEST PUSH0 PUSH2 0x8B4 DUP5 DUP3 DUP6 ADD PUSH2 0x87E JUMP JUMPDEST SWAP2 POP POP SWAP3 SWAP2 POP POP JUMP JUMPDEST PUSH0 DUP2 SWAP1 POP SWAP2 SWAP1 POP JUMP JUMPDEST PUSH0 PUSH2 0x8E0 PUSH2 0x8DB PUSH2 0x8D6 DUP5 PUSH2 0x810 JUMP JUMPDEST PUSH2 0x8BD JUMP JUMPDEST PUSH2 0x810 JUMP JUMPDEST SWAP1 POP SWAP2 SWAP1 POP JUMP JUMPDEST PUSH0 PUSH2 0x8F1 DUP3 PUSH2 0x8C6 JUMP JUMPDEST SWAP1 POP SWAP2 SWAP1 POP JUMP JUMPDEST PUSH0 PUSH2 0x902 DUP3 PUSH2 0x8E7 JUMP JUMPDEST SWAP1 POP SWAP2 SWAP1 POP JUMP JUMPDEST PUSH2 0x912 DUP2 PUSH2 0x8F8 JUMP JUMPDEST DUP3 MSTORE POP POP JUMP JUMPDEST PUSH0 PUSH1 0x20 DUP3 ADD SWAP1 POP PUSH2 0x92B PUSH0 DUP4 ADD DUP5 PUSH2 0x909 JUMP JUMPDEST SWAP3 SWAP2 POP POP JUMP JUMPDEST PUSH0 DUP3 DUP3 MSTORE PUSH1 0x20 DUP3 ADD SWAP1 POP SWAP3 SWAP2 POP POP JUMP JUMPDEST PUSH32 0x416D6F756E74206D7573742062652067726561746572207468616E2030000000 PUSH0 DUP3 ADD MSTORE POP JUMP JUMPDEST PUSH0 PUSH2 0x975 PUSH1 0x1D DUP4 PUSH2 0x931 JUMP JUMPDEST SWAP2 POP PUSH2 0x980 DUP3 PUSH2 0x941 JUMP JUMPDEST PUSH1 0x20 DUP3 ADD SWAP1 POP SWAP2 SWAP1 POP JUMP JUMPDEST PUSH0 PUSH1 0x20 DUP3 ADD SWAP1 POP DUP2 DUP2 SUB PUSH0 DUP4 ADD MSTORE PUSH2 0x9A2 DUP2 PUSH2 0x969 JUMP JUMPDEST SWAP1 POP SWAP2 SWAP1 POP JUMP JUMPDEST PUSH32 0x496E73756666696369656E74206C697175696469747900000000000000000000 PUSH0 DUP3 ADD MSTORE POP JUMP JUMPDEST PUSH0 PUSH2 0x9DD PUSH1 0x16 DUP4 PUSH2 0x931 JUMP JUMPDEST SWAP2 POP PUSH2 0x9E8 DUP3 PUSH2 0x9A9 JUMP JUMPDEST PUSH1 0x20 DUP3 ADD SWAP1 POP SWAP2 SWAP1 POP JUMP JUMPDEST PUSH0 PUSH1 0x20 DUP3 ADD SWAP1 POP DUP2 DUP2 SUB PUSH0 DUP4 ADD MSTORE PUSH2 0xA0A DUP2 PUSH2 0x9D1 JUMP JUMPDEST SWAP1 POP SWAP2 SWAP1 POP JUMP JUMPDEST PUSH32 0x4E487B7100000000000000000000000000000000000000000000000000000000 PUSH0 MSTORE PUSH1 0x11 PUSH1 0x4 MSTORE PUSH1 0x24 PUSH0 REVERT JUMPDEST PUSH0 PUSH2 0xA48 DUP3 PUSH2 0x78A JUMP JUMPDEST SWAP2 POP PUSH2 0xA53 DUP4 PUSH2 0x78A JUMP JUMPDEST SWAP3 POP DUP3 DUP3 SUB SWAP1 POP DUP2 DUP2 GT ISZERO PUSH2 0xA6B JUMPI PUSH2 0xA6A PUSH2 0xA11 JUMP JUMPDEST JUMPDEST SWAP3 SWAP2 POP POP JUMP JUMPDEST PUSH32 0x4E487B7100000000000000000000000000000000000000000000000000000000 PUSH0 MSTORE PUSH1 0x1 PUSH1 0x4 MSTORE PUSH1 0x24 PUSH0 REVERT JUMPDEST PUSH0 PUSH1 0x40 DUP3 ADD SWAP1 POP PUSH2 0xAB1 PUSH0 DUP4 ADD DUP6 PUSH2 0x840 JUMP JUMPDEST PUSH2 0xABE PUSH1 0x20 DUP4 ADD DUP5 PUSH2 0x7E8 JUMP JUMPDEST SWAP4 SWAP3 POP POP POP JUMP JUMPDEST PUSH0 DUP2 ISZERO ISZERO SWAP1 POP SWAP2 SWAP1 POP JUMP JUMPDEST PUSH2 0xAD9 DUP2 PUSH2 0xAC5 JUMP JUMPDEST DUP2 EQ PUSH2 0xAE3 JUMPI PUSH0 DUP1 REVERT JUMPDEST POP JUMP JUMPDEST PUSH0 DUP2 MLOAD SWAP1 POP PUSH2 0xAF4 DUP2 PUSH2 0xAD0 JUMP JUMPDEST SWAP3 SWAP2 POP POP JUMP JUMPDEST PUSH0 PUSH1 0x20 DUP3 DUP5 SUB SLT ISZERO PUSH2 0xB0F JUMPI PUSH2 0xB0E PUSH2 0x786 JUMP JUMPDEST JUMPDEST PUSH0 PUSH2 0xB1C DUP5 DUP3 DUP6 ADD PUSH2 0xAE6 JUMP JUMPDEST SWAP2 POP POP SWAP3 SWAP2 POP POP JUMP JUMPDEST PUSH32 0x546F6B656E207472616E73666572206661696C65640000000000000000000000 PUSH0 DUP3 ADD MSTORE POP JUMP JUMPDEST PUSH0 PUSH2 0xB59 PUSH1 0x15 DUP4 PUSH2 0x931 JUMP JUMPDEST SWAP2 POP PUSH2 0xB64 DUP3 PUSH2 0xB25 JUMP JUMPDEST PUSH1 0x20 DUP3 ADD SWAP1 POP SWAP2 SWAP1 POP JUMP JUMPDEST PUSH0 PUSH1 0x20 DUP3 ADD SWAP1 POP DUP2 DUP2 SUB PUSH0 DUP4 ADD MSTORE PUSH2 0xB86 DUP2 PUSH2 0xB4D JUMP JUMPDEST SWAP1 POP SWAP2 SWAP1 POP JUMP JUMPDEST PUSH32 0x4C6971756964697479206D7573742062652067726561746572207468616E2030 PUSH0 DUP3 ADD MSTORE POP JUMP JUMPDEST PUSH0 PUSH2 0xBC1 PUSH1 0x20 DUP4 PUSH2 0x931 JUMP JUMPDEST SWAP2 POP PUSH2 0xBCC DUP3 PUSH2 0xB8D JUMP JUMPDEST PUSH1 0x20 DUP3 ADD SWAP1 POP SWAP2 SWAP1 POP JUMP JUMPDEST PUSH0 PUSH1 0x20 DUP3 ADD SWAP1 POP DUP2 DUP2 SUB PUSH0 DUP4 ADD MSTORE PUSH2 0xBEE DUP2 PUSH2 0xBB5 JUMP JUMPDEST SWAP1 POP SWAP2 SWAP1 POP JUMP JUMPDEST PUSH0 PUSH1 0x60 DUP3 ADD SWAP1 POP PUSH2 0xC08 PUSH0 DUP4 ADD DUP7 PUSH2 0x840 JUMP JUMPDEST PUSH2 0xC15 PUSH1 0x20 DUP4 ADD DUP6 PUSH2 0x840 JUMP JUMPDEST PUSH2 0xC22 PUSH1 0x40 DUP4 ADD DUP5 PUSH2 0x7E8 JUMP JUMPDEST SWAP5 SWAP4 POP POP POP POP JUMP JUMPDEST PUSH0 PUSH2 0xC34 DUP3 PUSH2 0x78A JUMP JUMPDEST SWAP2 POP PUSH2 0xC3F DUP4 PUSH2 0x78A JUMP JUMPDEST SWAP3 POP DUP3 DUP3 ADD SWAP1 POP DUP1 DUP3 GT ISZERO PUSH2 0xC57 JUMPI PUSH2 0xC56 PUSH2 0xA11 JUMP JUMPDEST JUMPDEST SWAP3 SWAP2 POP POP JUMP JUMPDEST PUSH32 0x4F6E6C7920746865206F776E65722063616E2063616C6C20746869732066756E PUSH0 DUP3 ADD MSTORE PUSH32 0x6374696F6E000000000000000000000000000000000000000000000000000000 PUSH1 0x20 DUP3 ADD MSTORE POP JUMP JUMPDEST PUSH0 PUSH2 0xCB7 PUSH1 0x25 DUP4 PUSH2 0x931 JUMP JUMPDEST SWAP2 POP PUSH2 0xCC2 DUP3 PUSH2 0xC5D JUMP JUMPDEST PUSH1 0x40 DUP3 ADD SWAP1 POP SWAP2 SWAP1 POP JUMP JUMPDEST PUSH0 PUSH1 0x20 DUP3 ADD SWAP1 POP DUP2 DUP2 SUB PUSH0 DUP4 ADD MSTORE PUSH2 0xCE4 DUP2 PUSH2 0xCAB JUMP JUMPDEST SWAP1 POP SWAP2 SWAP1 POP JUMP JUMPDEST PUSH0 DUP2 MLOAD SWAP1 POP PUSH2 0xCF9 DUP2 PUSH2 0x793 JUMP JUMPDEST SWAP3 SWAP2 POP POP JUMP JUMPDEST PUSH0 PUSH1 0x20 DUP3 DUP5 SUB SLT ISZERO PUSH2 0xD14 JUMPI PUSH2 0xD13 PUSH2 0x786 JUMP JUMPDEST JUMPDEST PUSH0 PUSH2 0xD21 DUP5 DUP3 DUP6 ADD PUSH2 0xCEB JUMP JUMPDEST SWAP2 POP POP SWAP3 SWAP2 POP POP JUMP INVALID LOG2 PUSH5 0x6970667358 0x22 SLT KECCAK256 EXTCODECOPY PUSH25 0x1D61DD796E3039110E6AF454B0B744C9BFB60913737B775B43 PUSH9 0xBD12D3C764736F6C63 NUMBER STOP ADDMOD BYTE STOP CALLER "
				},
				"gasEstimates": {
					"creation": {
						"codeDepositCost": "684800",
						"executionCost": "infinite",
						"totalCost": "infinite"
					},
					"external": {
						"addLiquidity(uint256)": "infinite",
						"emergencyWithdraw()": "infinite",
						"liquidityProviders(address)": "2846",
						"owner()": "2505",
						"token()": "infinite",
						"totalLiquidity()": "2448",
						"withdrawLiquidity(uint256)": "infinite"
					}
				},
				"methodIdentifiers": {
					"addLiquidity(uint256)": "51c6590a",
					"emergencyWithdraw()": "db2e21bc",
					"liquidityProviders(address)": "dbd94267",
					"owner()": "8da5cb5b",
					"token()": "fc0c546a",
					"totalLiquidity()": "15770f92",
					"withdrawLiquidity(uint256)": "0a861f2a"
				}
			},
			"storageLayout": {
				"storage": [
					{
						"astId": 82,
						"contract": "contracts/LiquidityPool.sol:SimpleLiquidityPool",
						"label": "owner",
						"offset": 0,
						"slot": "0",
						"type": "t_address"
					},
					{
						"astId": 84,
						"contract": "contracts/LiquidityPool.sol:SimpleLiquidityPool",
						"label": "totalLiquidity",
						"offset": 0,
						"slot": "1",
						"type": "t_uint256"
					},
					{
						"astId": 87,
						"contract": "contracts/LiquidityPool.sol:SimpleLiquidityPool",
						"label": "token",
						"offset": 0,
						"slot": "2",
						"type": "t_contract(IERC20)77"
					},
					{
						"astId": 91,
						"contract": "contracts/LiquidityPool.sol:SimpleLiquidityPool",
						"label": "liquidityProviders",
						"offset": 0,
						"slot": "3",
						"type": "t_mapping(t_address,t_uint256)"
					}
				],
				"types": {
					"t_address": {
						"encoding": "inplace",
						"label": "address",
						"numberOfBytes": "20"
					},
					"t_contract(IERC20)77": {
						"encoding": "inplace",
						"label": "contract IERC20",
						"numberOfBytes": "20"
					},
					"t_mapping(t_address,t_uint256)": {
						"encoding": "mapping",
						"key": "t_address",
						"label": "mapping(address => uint256)",
						"numberOfBytes": "32",
						"value": "t_uint256"
					},
					"t_uint256": {
						"encoding": "inplace",
						"label": "uint256",
						"numberOfBytes": "32"
					}
				}
			},
			"userdoc": {
				"kind": "user",
				"methods": {},
				"version": 1
			}
		}
	}
}